:020000040800F2
:10000000400D0020AD020008C7470008BD3E0008B3
:10001000C54700086F050008C5690008000000001A
:100020000000000000000000000000006956000809
:100030007105000800000000C94700086B56000861
:10004000C7020008C7020008C7020008C70200086C
:10005000C7020008C7020008C7020008C70200085C
:10006000C7020008C7020008C7020008C70200084C
:10007000C7020008C7020008C7020008C70200083C
:10008000C7020008C7020008C7020008C70200082C
:10009000C7020008C7020008C7020008730500086D
:1000A000C7020008C7020008C7020008C70200080C
:1000B000A1570008C7020008C7020008CD3E00088B
:1000C000C13E0008C7020008C7020008C7020008B6
:1000D000C702000895690008A1690008AD69000819
:1000E000C7020008C702000800000000C70200089D
:1000F000C7020008C7020008C7020008C7020008BC
:10010000C70200080D4A0008C7020008C70200081D
:10011000E1580008ED580008C7020008C7020008AF
:10012000C7020008C7020008C7020008C70200088B
:10013000C7020008C7020008C7020008C70200087B
:1001400000000000000000000000000000000000AF
:10015000C7020008C7020008C7020008B969000802
:10016000C7020008C7020008C7020008C70200084B
:10017000C7020008C7020008C7020008000000000C
:10018000C7020008C7020008F9580008055900080E
:10019000C7020008C7020008C7020008C70200081B
:1001A000C7020008C7020008C7020008C70200080B
:1001B000C7020008C7020008C7020008C7020008FB
:1001C000C7020008C7020008C7020008C7020008EB
:1001D000C7020008C7020008C7020008C7020008DB
:1001E000C7020008C7020008C7020008C7020008CB
:1001F000C7020008C7020008C7020008C7020008BB
:10020000C7020008C7020008C7020008C7020008AA
:10021000C7020008C7020008C7020008C70200089A
:10022000C7020008C7020008C7020008000000005B
:10023000C7020008C702000800000000C70200084B
:10024000C7020008C7020008C7020008C70200086A
:10025000C7020008C7020008C7020008C70200085A
:10026000C7020008C7020008C7020008C70200084A
:10027000C7020008C7020008C7020008000000000B
:10028000C7020008C7020008C702000800000000FB
:1002900000000000C7020008DFF80CD000F082F870
:1002A0000048004779760008400D00200648804746
:1002B00006480047FEE7FEE7FEE7FEE7FEE7FEE74B
:1002C000FEE7FEE7FEE7FEE7055700089902000893
:1002D0002DE9F05F0546002092469B46884606467B
:1002E000814640241BE0284641464746224600F00E
:1002F00048F853465A46C01A914110D31146184641
:10030000224600F02FF82D1A67EB01084F462246CF
:100310000120002100F026F817EB00094E41201EB5
:10032000A4F10104DFDC484631462A464346BDE8D5
:10033000F09FD2B201E000F8012B491EFBD27047BA
:100340000022F6E710B513460A4604461946FFF7A1
:10035000F0FF204610BD421C10F8011B0029FBD104
:10036000801A7047202A04DB203A00FA02F10020AC
:1003700070479140C2F1200320FA03F319439040E3
:100380007047202A04DB203A21FA02F0002170474E
:1003900021FA02F3D040C2F12002914008431946ED
:1003A00070470000064C074D06E0E06840F001038E
:1003B00094E8070098471034AC42F6D3FFF770FF7B
:1003C00080780008A078000810B501240348610275
:1003D00000F0FAFA00B10024204610BD00000258D7
:1003E0000146014802F004BAA0000020044810B5FC
:1003F00002F010FA042801D0012010BD002010BD29
:10040000A000002010B500F015F8012801D002204E
:1004100010BD074802F084FB040006D104484FF4E5
:10042000804102F07BF800B10124204610BD00009D
:10043000A000002008B501208DF80000FFF7C4FFE0
:1004400010B900208DF800009DF8000008BD0000E4
:1004500038B50024009313460A460146034802F0CB
:100460003DFC00B10124204638BD0000A000002062
:100470007047000038B50024009313460A46014631
:10048000034802F01DFD00B10124204638BD0000E4
:10049000A0000020704706220B4610B50446114606
:1004A00000F037F8204600F027F828B1204600F089
:1004B00014F8204600F002F8012010BD1CB50D22F2
:1004C00069464FF4FA6303F027FB10B99DF8040066
:1004D00008B100201CBD01201CBD1CB50C226946C2
:1004E0004FF4FA6303F018FB10B99DF8040008B14B
:1004F00000201CBD01201CBD1CB5642369460622DA
:1005000003F00AFB9DF8040008B100201CBD012087
:100510001CBD2DE9F0411E4614460F468046501D75
:1005200007F016F9022202704770210A847005460E
:10053000C170002003E02A18315C401C1171A042F8
:10054000F9DB201DC1B2284606F032FF2919641DCF
:10055000A2B208714FF47A732946404603F028FC92
:100560000446284606F0D2FF2046BDE8F081FEE7AB
:100570007047202000F01DB9002200F001B80000F3
:100580000E4B70B505465C7A0120002C14D15E7AC2
:1005900003F108009C555E7A03EB860675605D7A70
:1005A0002A54587A421C5A723A232F22303008704B
:1005B0004B7020468A70CC7070BD00003007002060
:1005C0002DE9F05F28B190F83510022904D0802180
:1005D00041650120BDE8F09F634A634B624F1832CA
:1005E00001683033614C624DB942DFF888A1DFF811
:1005F0008891DFF888B1DFF88881DFF888E1624E02
:1006000032D0914230D099422ED0A1422CD0A94272
:100610002AD0514528D0494526D0594524D0C44632
:10062000614521D0DFF858C10CF1180C61451BD091
:10063000DFF84CC10CF1300C614515D0DFF844C136
:10064000ACF1300C61450FD0DFF838C1ACF1180CBB
:10065000614509D0714507D0DFF828C10CF1180CAD
:10066000614501D0B1422ED14FF0040C80F835C065
:10067000B94223D0914221D099421FD0A1421DD02E
:10068000A9421BD0514519D0494517D0594515D01D
:10069000414513D03A48183081420FD038483030A5
:1006A00081420BD037483038814207D0354818385E
:1006B000814203D0714501D032481830086820F0DB
:1006C000010008604DE0D1F8008028F00E08C1F864
:1006D00000800168B9421ED091421CD099421AD0C4
:1006E000A14218D0A94216D0514514D0494512D084
:1006F000594510D0224A91420DD0214A18329142D8
:1007000009D01F4A3032914205D01E4A303A9142F8
:1007100001D01C4A183A0A6822F001020A60026EEF
:100720000121136823F48073136090F85C30826DAC
:1007300003F01F0301FA03F35360D0E91923536058
:10074000C26E32B1136823F480731360D0E91C23A6
:1007500053600023026D80F8343080F8351002B108
:100760009047002036E70000100002405800024089
:100770007000024088000240A0000240B800024021
:100780001004024088040240B804024070B50446D8
:1007900000F02AF90546601C02D0044800780444A1
:1007A00000F022F9401BA042FAD370BD34000020B3
:1007B00070474FF0B04110B5D1F88820024203D005
:1007C000C1F88800FFF7F4FF10BD00002DE9F84FD5
:1007D000714C00234FF0B04E4FF001094FF0030B66
:1007E0004FF00F0AD0E000BF09FA03F812EA08023E
:1007F00074D04D68022D01D0122D0FD1DD085F0796
:1008000000EB850500950E692D6AFF0E0AFA07FCBC
:10081000BE4025EA0C052E43009D2E625D000F7937
:1008200006680BFA05FC07F0030726EA0C06AF4042
:10083000374307604E68012E05D0022E03D0112EDB
:1008400001D0122E0FD18668CF6826EA0C06AF4081
:100850003743876046680F7926EA0806C7F3001712
:100860009F4037434760C6688F6826EA0C06AF4052
:100870003743C7604D68ED0030D5484D2E6846F0CF
:1008800002062E602D6823F0030606F1B04605F03F
:10089000020500959D072F0FD6F80854DFF8008158
:1008A0000AFA07FC404525EA0C0502D14FF0000C7E
:1008B00041E0DFF8F0C0604502D14FF0010C3AE0B2
:1008C000DFF8E4C0604502D14FF0020C33E0DFF8FE
:1008D000DCC0604503D14FF0030C2CE053E0DFF89F
:1008E000D0C0604502D14FF0040C24E0DFF8C4C052
:1008F000604502D14FF0050C1DE0DFF8BCC060453B
:1009000002D14FF0060C16E0DFF8B0C0604502D10E
:100910004FF0070C0FE0DFF8A8C0604502D14FF0A0
:10092000080C08E0DFF89CC0604502D14FF0090CCC
:1009300001E04FF00A0C0CFA07FC4CEA050CC6F873
:1009400008C425684E6825EA0205F60300D515435C
:10095000256065684E6825EA0205B60300D5154393
:1009600065604F687546DEF80060FF0226EA020601
:1009700000D516432E604F686E68BF0226EA020655
:1009800000D516436E605B1C0A6832FA03F57FF4EB
:100990002BAFBDE8F88F000080000058F4440258E7
:1009A000000002580004025800080258000C0258C7
:1009B000001002580014025800180258001C025877
:1009C00000200258002402580069084000D001208D
:1009D00070470AB1816170470904FBE7014800686C
:1009E000000C70470010005C0148806870470000F0
:1009F0003400002030B590F84120202A24D190F80E
:100A00004020012A20D0012380F84030242280F8A1
:100A10004120202300240268156825F00105156097
:100A20000268156825F480551560026815680D4345
:100A3000156001680A6842F001020A6080F84130DE
:100A400080F84040002030BD022030BD30B590F825
:100A50004120202A22D190F84020012A1ED00123D3
:100A600080F84030242280F84120202400250268AC
:100A7000136823F0010313600268136823F47063A2
:100A800043EA0121116001680A6842F001020A602C
:100A900080F8414080F84050002030BD022030BD39
:100AA0007047704730B403689A691968D243D40517
:100AB00009D4CC43240606D4456C4FF4807445F029
:100AC00001054564DC6153050AD4CB431B0607D4FA
:100AD000446C4FF4806344F0080444640468E361A8
:100AE00092050AD4C943090607D4426C4FF4007139
:100AF00042F0020242640268D161416C11F00B0FB6
:100B000002D030BC03F07CBA30BC70470268436B43
:100B100091691268002B00D0184770477047000099
:100B200070B5040004D094F84100002510B106E02F
:100B3000012070BD204684F8405000F04FF824207A
:100B400084F841002068016821F001010160D4E9C6
:100B5000001020F0706008612068816821F4004175
:100B60008160E06821680128A06806D040F4044054
:100B70008860E068022803D006E040F40040F7E710
:100B800021684FF40060486020212068114A4368C2
:100B9000134343602068C26822F40042C26054F8E4
:100BA000106B0DCC104340EA0320F06054F81C3C5D
:100BB000D4E900021043186054F81C0D026842F09A
:100BC00001020260656484F84110256384F8425094
:100BD000002070BD008000027047000010B586B094
:100BE000044614216846FFF7ABFB1B492068884286
:100BF00030D11A48016841F0020101600068042305
:100C0000122200F00200059000204FF44071009184
:100C10006946CDE90120CDE903031148FFF7D6FD70
:100C20000E480830016841F400110160006800229C
:100C3000114600F4001005901F2000F085F81F20D9
:100C400000F074F800222020114600F07DF82020EA
:100C500000F06CF806B010BD00540040E0440258AB
:100C600000040258704770470248816802781144B6
:100C70008160704734000020032010B500F084F834
:100C800001F050F90E490F4A0F4B0C68C4F30324CE
:100C9000145D04F01F04E0401860096801F00F01C2
:100CA000515C01F01F01C84008490860002000F0B5
:100CB0000FF808B1012010BD00F02AF8002010BD87
:100CC00018440258D077000840000020440000205B
:100CD00070B50D4D04462878A0B14FF47A71B1FB80
:100CE000F0F00A490968B1FBF0F002F0E5F948B903
:100CF000102C07D200222146501E00F025F80020BB
:100D00006C6070BD012070BD3400002040000020E8
:100D1000054808B5016841F002010160006800F073
:100D20000200009008BD0000F4440258002809DBCE
:100D3000410900F01F028900012001F1E0219040EB
:100D4000C1F80001704700000E4BF0B41B680D465F
:100D5000C3F30223C3F10706042E00D90426191D8C
:100D6000072901D2002300E0DB1E012404FA06F16A
:100D70009C40491E2940641E994014402143F0BC08
:100D800005F04EBE0CED00E0064900F0070210B57C
:100D90004FF6FF040868044B204040EA0220184345
:100DA000086010BD0CED00E00000FA05124970B5B6
:100DB0000A68520706D40A6802F00702824201D08C
:100DC000012070BD0A6822F0070202430A60FFF7A3
:100DD0000BFE094D4FF47A760446083D07E000BF4C
:100DE000FFF702FE001BB04201D9032070BD286846
:100DF0008004F5D5002070BD0C48025810B501F0F4
:100E000091F8064A06491268064BC2F303229A5C1F
:100E100002F01F02D040086010BD000018440258C4
:100E200040000020D077000810B501F041F80549D6
:100E30000968054AC1F30211515C01F01F01C84065
:100E400010BD000020440258D0770008494930B551
:100E5000484C0B1D0A680C3409681D68246802F0B0
:100E6000030305F00102C1F30511C4F3CC0400290A
:100E700014FB02F200EE102AF8EE400A75D03F4A49
:100E80009FED3D1AB7EE000A6BB1DFED3D1A012B65
:100E900001D0022B64D002EE101A1168F8EE422A3B
:100EA00081EEA22A21E0334C283C23689B0612D510
:100EB000344B246801EE901A1168C4F3C104F8EEB3
:100EC000612AE34001EE903AC1F30801F8EE611A9D
:100ED00081EEA22A0BE001EE901ADFED2B2A00BF73
:100EE000F8EE611A116882EEA12AC1F3080101EE41
:100EF000901A1168F8EE611A40EE811A71EE800ABC
:100F000062EE200AC1F3462101EE101AB8EE411A32
:100F100031EE001AC0EE811ABCEEE11A80ED001A23
:100F20001168C1F3064101EE101AB8EE411A31EE14
:100F3000001AC0EE811ABCEEE11A80ED011A1168A8
:100F4000C1F3066101EE101AB8EE411A31EE000A43
:100F500080EE801ABCEEC10A80ED020A30BD04E0CA
:100F600001EE901ADFED092ABAE700210160416025
:100F70008160F3E7284402580000003930440258E9
:100F80000024744A0090D0030024744C20BCBE4B53
:100F9000494930B5484C0B1D0A68143409681D686E
:100FA000246802F0030305F01002C1F30531C4F315
:100FB000CC04002914FB02F200EE102AF8EE400ADD
:100FC00075D03F4A9FED3D1AB7EE000A6BB1DFEDD9
:100FD0003D1A012B01D0022B64D002EE101A1168C9
:100FE000F8EE422A81EEA22A21E0334C283C236805
:100FF0009B0612D5344B246801EE901A1168C4F395
:10100000C104F8EE612AE34001EE903AC1F3080111
:10101000F8EE611A81EEA22A0BE001EE901ADFEDE4
:101020002B2A00BFF8EE611A116882EEA12AC1F3E3
:10103000080101EE901A1168F8EE611A40EE811A6B
:1010400071EE800A62EE200AC1F3462101EE101A09
:10105000B8EE411A31EE001AC0EE811ABCEEE11A68
:1010600080ED001A1168C1F3064101EE101AB8EEC6
:10107000411A31EE001AC0EE811ABCEEE11A80ED81
:10108000011A1168C1F3066101EE101AB8EE411A97
:1010900031EE000A80EE801ABCEEC10A80ED020A31
:1010A00030BD04E001EE901ADFED092ABAE7002115
:1010B000016041608160F3E7284402580000003974
:1010C000384402580024744A0090D0030024744C21
:1010D00020BCBE4B494930B5484C0B1D0A681C3436
:1010E00009681D68246802F0030305F48072C1F3E7
:1010F0000551C4F3CC04002914FB02F200EE102ABF
:10110000F8EE400A75D03F4A9FED3D1AB7EE000A4F
:101110006BB1DFED3D1A012B01D0022B64D002EE42
:10112000101A1168F8EE422A81EEA22A21E0334C0F
:10113000283C23689B0612D5344B246801EE901A94
:101140001168C4F3C104F8EE612AE34001EE903A5D
:10115000C1F30801F8EE611A81EEA22A0BE001EE5C
:10116000901ADFED2B2A00BFF8EE611A116882EEAB
:10117000A12AC1F3080101EE901A1168F8EE611A74
:1011800040EE811A71EE800A62EE200AC1F3462118
:1011900001EE101AB8EE411A31EE001AC0EE811AB3
:1011A000BCEEE11A80ED001A1168C1F3064101EEB0
:1011B000101AB8EE411A31EE001AC0EE811ABCEED8
:1011C000E11A80ED011A1168C1F3066101EE101AEF
:1011D000B8EE411A31EE000A80EE801ABCEEC10A68
:1011E00080ED020A30BD04E001EE901ADFED092A1D
:1011F000BAE70021016041608160F3E728440258AA
:1012000000000039404402580024744A0090D00382
:101210000024744C20BCBE4B2DE9F0434FF4807881
:10122000014640455F48DFF878C189B05E4C4FF019
:1012300080565E4DACF104024FEA20134FF0005788
:1012400029D1DCF8001001F0070105291FD2DFE8E1
:1012500001F0030A0F20140003A8FFF7F7FD04981C
:1012600009B0BDE8F0836846FFF792FE0098F7E703
:1012700006A8FFF72FFF0698F2E7116811F040511A
:10128000EED0B14277D11846EAE72046E8E70020E1
:10129000E6E72846E4E7B1F5007F18D0DFF81081D3
:1012A000B1F5806F24D0B1F5006F36D04FF480597E
:1012B00049454ED1DCF8001001F4E041B1F5005F82
:1012C000D6D03FDC0029C7D04945E0D1CBE7DCF8D8
:1012D000001001F4E0718029CAD004DC0029BBD0E1
:1012E0004029D4D1BFE7C029D3D04145CFD1C4E7ED
:1012F000D8F8001001F46001B1F5800FB8D005DC1A
:101300000029A9D0B1F5001FC1D1ACE7B1F5C00FDC
:10131000BFD0B1F5000FBAD1AFE7D8F8001001F097
:10132000E061B1F1007FA3D005DC002994D0B1F1D8
:10133000807FACD197E7B1F1407FAAD0B1F1806F47
:10134000A5D19AE7B1F5405FA3D0B1F5804F9ED10A
:1013500093E7B1F5002F4FF480350DD0A94296D117
:10136000106810F48030AED0A84290D16846FFF7E4
:101370000FFE029874E70FE0D8F8001011F4403126
:10138000A4D0A94203D0B1F5003F80D175E706A8EB
:10139000FFF7A0FE089863E7B94296D175E7000011
:1013A000504402580090D00340787D010080BB007B
:1013B000584402582DE9FC5F044650F8241B0025D0
:1013C00000902E460801FE4FDFF8F8931DD5606EA1
:1013D00050B1B0F5801F0CD0B0F5001F0ED0B0F5A5
:1013E000401F1DD001250FE0386840F40030386000
:1013F00016E00221201D03F0E9F903E00098022124
:1014000003F074FA05000BD02E462088C00523D5C2
:10141000606D05281ED2DFE800F00C11161B1B00C2
:10142000626ED9F8001021F440111143C9F8001080
:10143000EBE7386840F40030386009E00021201DF7
:1014400003F0C4F903E00098002103F04FFA0546C9
:101450006DB100E001252E462088800528D5A06DBD
:1014600080281ED00CDC90B140280ED114E0626DB3
:10147000D9F8001021F007011143C9F80010EBE77B
:10148000C02813D0B0F5807F10D001250FE0386858
:1014900040F40030386009E00021201D03F096F987
:1014A00003E00098002103F021FA054695B12E468D
:1014B0002088DFF81083400508F108082CD5D4F8FF
:1014C000A400B0F5800F20D00DDCA0B1B0F5001F56
:1014D0000FD115E0A26DD9F8001021F4E07111438D
:1014E000C9F80010E4E7B0F5C00F13D0B0F5000F55
:1014F00010D001250FE0386840F40030386009E072
:101500000021201D03F062F903E00098002103F0A0
:10151000EDF9054675B12E46208800052DD5D4F885
:10152000A800B0F1007F21D00EDCA8B1B0F1807F1F
:1015300010D116E0D4F8A420D8F8001021F46001EE
:101540001143C8F80010E7E7B0F1407F13D0B0F1C5
:10155000806F10D001250FE0386840F4003038600B
:1015600009E00021201D03F031F903E0009800217B
:1015700003F0BCF905466DB12E46206880011FD5E9
:10158000A06CD8B110280FD0202812D0302815D048
:10159000012514E0D4F8A820D8F8001021F0E0616B
:1015A0001143C8F80010E8E7386840F400303860AC
:1015B00004E00221201D03F009F905466DB12E4615
:1015C0002088C0042BD5E06DB0F5005F20D00DDC85
:1015D000A0B1B0F5805F0FD115E07A48A26C001F72
:1015E000016821F0300111430160E9E7B0F5405F87
:1015F00013D0B0F5804F10D001250FE0386840F4CB
:101600000030386009E00021201D03F0DFF803E01E
:101610000098002103F06AF9054685B12E4620881E
:10162000800429D5206EB0F5403F23D010DC08B3EC
:10163000B0F5803F14D0B0F5003F0FD115E0E26D5A
:10164000D9F8001021F4E0411143C9F80010E6E791
:10165000B0F5802F0ED0B0F5A02F0BD001250AE0F9
:101660000121201D03F0B2F803E00098012103F0EE
:101670003DF905468DB12E46208840042AD5D4F880
:10168000AC00B0F1405F23D010DC08B3B0F1805F54
:1016900014D0B0F1005F0FD115E0226ED9F8001020
:1016A00021F4E0211143C9F80010E5E7B0F1804FC3
:1016B0000ED0B0F1A04F0BD001250AE00121201D72
:1016C00003F084F803E00098012103F00FF90546C8
:1016D0006DB12E46208800041FD5E06ED8B1B0F160
:1016E000805F0ED0B0F1005F10D0012514E0D4F877
:1016F000AC20D8F8001021F0E0411143C8F80010E8
:10170000E8E7386840F40030386004E00121201D2B
:1017100003F05CF805466DB12E462068C0011ED569
:10172000606CD0B101280ED0022811D0032814D04B
:10173000012513E0E26ED9F8001021F04051114369
:10174000C9F80010E9E7386840F40030386004E078
:101750000221201D03F03AF8054685B12E46206887
:10176000DFF85CB04002ABF11C0B57D5164801689E
:1017700041F480710160FFF737F982460EE01148AD
:10178000626C001F016821F0030111430160E6E76C
:10179000FFF72AF9A0EB0A0064283DD80A48006840
:1017A000C005F5D57DBBDFF81CA0B4F8B0100AF178
:1017B000200ADAF8000001F4407100F4407005E0FE
:1017C0002C4402585044025800480258884211D014
:1017D000DAF80010DAF8002021F4407142F4803287
:1017E000CAF80020DAF8002022F48032CAF800207B
:1017F000CAF80010D4F8B000B0F5807F21D1FFF70F
:10180000F3F8019019E008E0FFF7EEF80199411AAA
:1018100041F28830814210D903252E462078DFF826
:101820002CA4C0073DD0A06F182838D026DC80B388
:10183000082829D0102825D12CE0DAF800008007EC
:10184000E2D5D4F8B010C1F30120032858460DD0DA
:10185000016821F47C510160B4F8B020DAF800107E
:10186000C2F30B021143CAF80010D7E7F84A036825
:1018700002EA111223F47C511143ECE720280ED028
:1018800028280CD001250BE00121201D02F09EFF2D
:1018900004E004E00098012103F028F805465DB15A
:1018A0002E46207880071ED5606F062819D2DFE803
:1018B00000F0160C11161616A26FDAF8001021F0BF
:1018C00038011143CAF80010EBE70121201D02F096
:1018D0007DFF03E00098012103F008F8054675B18B
:1018E00000E001252E46207840071FD5D4F890004F
:1018F000062819D2DFE800F0160C11161616626FD2
:10190000DAF8001021F007011143CAF80010EAE7E5
:101910000121201D02F05AFF03E00098012102F08E
:10192000E5FF05469DB100E001252E4620788006A2
:101930002BD5D4F88C00B0F1405F24D011DC10B36B
:10194000B0F1805F15D0B0F1005F10D116E0D4F88F
:101950009020D8F8001021F007011143C8F80010BA
:10196000E4E7B0F1804F0ED0B0F1A04F0BD00125CD
:101970000AE00021201D02F029FF03E00098022167
:1019800002F0B4FF05468DB12E46207840062BD5D7
:10199000D4F89800B0F5406F24D011DC10B3B0F546
:1019A000806F15D0B0F5006F10D116E0D4F88C2000
:1019B000DAF8001021F0E0411143CAF80010E4E722
:1019C000B0F5805F0ED0B0F5A05F0BD001250AE026
:1019D0000021201D02F0FAFE03E00098022102F02F
:1019E00085FF05468DB12E46207800062BD5D4F80C
:1019F0009C00B0F5C04F24D011DC10B3B0F5005FEF
:101A000015D0B0F5804F10D116E0D4F89820D8F852
:101A1000001021F4E0511143C8F80010E4E7B0F5DC
:101A2000004F0ED0B0F5204F0BD001250AE0002169
:101A3000201D02F0CBFE03E00098022102F056FFC9
:101A4000054665B32E46207800070BD5D4F88010E4
:101A5000B1F5805F2DD0DAF8002022F440520A431D
:101A6000CAF800202078C0060BD5D4F89410B1F540
:101A7000807F26D0D8F8002022F440720A43C8F8AC
:101A800000202068000330D5D4F8A00008B3B0F5DA
:101A9000803F23D0B0F5003F25D0012524E0D4F8C5
:101AA0009C20D8F8001021F460411143C8F80010C0
:101AB000C9E70098022102F019FF0028D2D00126C0
:101AC000D0E70098022102F011FF0028D9D00126AA
:101AD000D7E70021201D02F079FE03E000980221E3
:101AE00002F004FF054685B12E462068400322D54A
:101AF000D4F88400B0F5801F11D0B0F5001F13D0CA
:101B0000B0F5401F15D0012514E0D4F8A020D8F876
:101B1000001021F440311143C8F80010E5E738689F
:101B200040F40030386004E00098012102F0DEFE4D
:101B3000054655B12E462068C0031CD5E06C70B137
:101B4000B0F5803F10D0012514E0D4F88420DAF8F5
:101B5000001021F440111143CAF80010EBE7386877
:101B600040F40030386004E00221201D02F02EFE17
:101B70000546CDB12E462068800005D5009802218B
:101B800002F0B4FE00B10126206880031BD5E06F8F
:101B9000B8B1B0F5807F10D0B0F5007F11D0B0F5AE
:101BA000407F0ED001250DE02848E26C083801681E
:101BB00021F4803111430160DDE7386840F40030E2
:101BC0003860EDB32E462068C00207D5226FD9F8E1
:101BD000001021F000411143C9F800102068C00036
:101BE00008D5D4F8B420DBF8001021F4804111436B
:101BF000CBF800102068800207D5A26ED9F800103B
:101C000021F080711143C9F80010206840000CD504
:101C1000DBF8001021F40041CBF80010DBF80010D5
:101C2000D4F8B8201143CBF800102068002809DA56
:101C30000648226D0838016821F04051114300E048
:101C400008E001607EB10120BDE8FC9F54440258C9
:101C5000CFFFFF00E26FDAF8001021F4407111436A
:101C6000CAF80010AFE70020EEE700002DE9F05FB2
:101C700004000F467ED0DFF82482D8F8000000F080
:101C80000F00B8420CD2D8F8001021F00F013943F0
:101C9000C8F80010D8F8000000F00F00B84269D171
:101CA00020787F4D40070AD52069296801F070012E
:101CB000884204D9296821F0700101432960207805
:101CC000774E361D00070AD56069316801F0700152
:101CD000884204D9316821F07001014331602078D5
:101CE000C0060AD5A069316801F4E061884204D9D0
:101CF000316821F4E061014331602078DFF8A0B160
:101D000080060BF1080B0CD5E1695846DBF8002082
:101D100002F07002914204D9026822F070020A4374
:101D20000260207880070AD5E068296801F00F0179
:101D3000884204D9296821F00F01014329602078E5
:101D4000C0073ED05649A2682868183920F4706050
:101D5000104328606068022818D0032819D0096849
:101D6000012819D0490700294ADADFF834A1AAF17D
:101D7000080A00E044E0DAF8002022F007020243FB
:101D8000CAF80020FEF730FE814612E00968890398
:101D9000E9E709688901E6E7C905E4E7FEF724FEFB
:101DA000A0EB090141F28830814202D90320BDE84D
:101DB000F09F6168DAF8000000F03800B0EBC10F66
:101DC000ECD1207880070AD5E068296801F00F017E
:101DD000884204D2296821F00F0101432960D8F814
:101DE0000010404601F00F01B9420BD9016821F003
:101DF0000F0139430160006800F00F00B84201D0C4
:101E00000120D4E7207840070AD52069296801F02D
:101E10007001884204D2296821F0700101432960D1
:101E2000207800070AD56069316801F070018842A6
:101E300004D2316821F07001014331602078C0067E
:101E40000AD5A069316801F4E061884204D23168A2
:101E500021F4E06101433160207880060CD5E1690E
:101E60005846DBF8002002F07002914204D202686A
:101E700022F070020A43026000F054F82968094A0F
:101E8000C1F30321515C01F01F01C84006490860FD
:101E900006480068BDE8F05FFEF71ABF0020005258
:101EA00018440258D0770008400000203800002075
:101EB00010B5FEF7A3FF064A06491268064B02F06A
:101EC0000F029A5C02F01F02D040086010BD0000B3
:101ED0001844025844000020D077000810B5FFF7DE
:101EE000E7FF05490968054AC1F30211515C01F099
:101EF0001F01C84010BD00001C440258D0770008E4
:101F000010B5FFF7D5FF05490968054AC1F302215D
:101F1000515C01F01F01C84010BD00001C44025874
:101F2000D0770008454970B545480968434B103BD8
:101F300011F0380208D00111082A03D0102A0BD062
:101F4000182A0BD0084670BD19688906FBD5196898
:101F5000C1F3C101C84070BD3A4870BD3749374D23
:101F600018310C1D24350A68096826682D6802F0AE
:101F7000030406F00102C1F30511C5F3CC0515FBFE
:101F800002F200EE102AB8EE400AE9B32F4ADFED64
:101F90002E0AB7EE001A6CB1DFED2D1A012C01D01C
:101FA000022C43D002EE101A1068F8EE422A81EE9D
:101FB000A22A1EE01C68A40611D51B6801EE901A27
:101FC0001168C3F3C103F8EE612AD84001EE900A0C
:101FD000C1F30800F8EE611A81EEA22A0BE001EECF
:101FE000901ADFED1C2A00BFF8EE611A106882EE2D
:101FF000A12AC0F3080001EE900AF8EE611A40EE43
:10200000201A31EE810A00E015E022EE000A106885
:10201000C0F34620401C00EE900AF8EE600A80EE05
:10202000201ABCEEC10A10EE100A70BD01EE901A23
:10203000DFED092AD8E7002070BD000010440258E7
:102040000090D00340787D010000003930440258F0
:102050000024744A0024744C20BCBE4B2DE9F05F70
:1020600004007DD0FF4F2078FE4D1837DFF8F49341
:10207000103DC00748D0D9F80000396800F038009A
:10208000102815D0182803D101F0030002280FD022
:102090006068B0F5803F12D010B1B0F5A02F18D015
:1020A000286820F480302860286820F4802009E027
:1020B0002868800328D560680028D2D024E02868EA
:1020C00040F480302860606888B1FEF78DFC0646D9
:1020D00009E0286840F480202860F0E7FEF784FCDF
:1020E000801B64286FD828688003F7D50CE0FEF7C2
:1020F0007BFC064605E000BFFEF776FC801B6428EB
:10210000F0D828688003F7D4207841F20308D54E30
:102110000C3E800761D5D9F80000396810F038000E
:102120000ED0182801D188070AD0E06880B329684A
:1021300021F0190101432960FEF756FC82462FE089
:102140002868400702D5E06800288AD0E16828683E
:1021500020F0190008432860FEF746FC824607E09D
:10216000D1E000BFFEF740FCA0EB0A000228B9D87E
:1021700028684007F6D500BFFEF730FC404513D86D
:102180002069316821F47C3141EA0030306024E07C
:1021900011E000BFFEF728FCA0EB0A000228A1D83E
:1021A00028684007F6D5E7E7207C316821F0FE413A
:1021B00041EA0060EAE7286820F001002860FEF7A5
:1021C00013FC824606E0FFE0FEF70EFCA0EB0A00DF
:1021D000022887D828684007F6D42078C00657D54B
:1021E000D9F80000DFF87CB2396800F03800ABF1B4
:1021F000040B082810D0182803D101F0030001288F
:102200000AD0E0690028286832D040F080002860B9
:10221000FEF7EAFB824623E02868C00523D5E06983
:10222000802870D11FE000BF94F82000316821F0B1
:10223000F84141EA806030602AE000BF94F8201045
:10224000DBF8002022F07C5242EA0161CBF800105A
:102250001EE000BFFEF7C8FBA0EB0A00022886D8EC
:102260002868C005F6D5FEF7B9FB4045E6D8DBE7A0
:1022700020F080002860FEF7B7FB064605E000BFAF
:10228000FEF7B2FB801B022889D82868C005F7D466
:102290002078000729D57348616964300029804699
:1022A000016811D041F001010160FEF79DFB064677
:1022B00005E000BFFEF798FB801B022889D8D8F8FC
:1022C00000008007F6D510E021F001010160FEF763
:1022D0008BFB064605E000BFFEF786FB801B02284D
:1022E00072D8D8F800008007F6D42078800623D56D
:1022F000A0690028286810D040F480502860FEF7BC
:1023000073FB064605E0E6E0FEF76EFB801B022845
:102310005AD828688004F7D50EE020F48050286051
:10232000FEF762FB064604E0FEF75EFB801B022818
:102330004AD828688004F7D4207840074FD5DFF8C2
:102340002881D8F8001041F48071C8F80010FEF719
:102350004BFB064605E000BFFEF746FB801B6428EA
:1023600032D8D8F80000C005F6D53E4EA0686036D9
:1023700001280AD008B1052813D0306820F00100E8
:102380003060306820F0040002E0306840F0010066
:102390003060A06841F2883A90B1FEF725FB804694
:1023A0000AE0306840F004003060EEE7FEF71CFB06
:1023B000A0EB0801514507D830688007F6D50EE03C
:1023C000FEF712FB804607E084E000BFFEF70CFB3F
:1023D000A0EB080151457DD830688007F6D4606ACB
:1023E000F0B3D9F80010C1F3C201032973D0022859
:1023F000286820F08070286003D0FEF7F5FA0446C4
:1024000080E0FEF7F1FA064605E000BFFEF7ECFAC1
:10241000801B022873D828688001F7D4E26A40F252
:10242000F331386854F8283F884340EA02101843D3
:102430003860217B4FF4FE0C22894FF0FE47208A42
:102440004902084B521E267DA1F5007189B2401E3B
:10245000C2F3080220331143761E0CEA004005E067
:1024600053E000001044025800480258014307EAB4
:102470000662181F114319601A1D016821F001013D
:10248000016011684FF6F876236AB14341EAC3014F
:1024900011600168A26921F00C011143016001681B
:1024A000E26921F0020111430160016841F48031C9
:1024B0000160016841F400310160016841F480214C
:1024C0000160016841F001010160286840F08070FE
:1024D000286001E013E01AE0FEF786FA044604E003
:1024E000FEF782FA001B022809D828688001F7D578
:1024F0000BE000BFFEF778FA001B022802D9032088
:10250000BDE8F09F28688001F4D40020F8E701209E
:10251000F6E7704770477047704700002DE9FE43AB
:1025200004460F46C16B032084F8340003295CD0B5
:10253000B7F5004F59D0B7F5804F4FF000054FF475
:1025400000664FF0806904D007B3A06B40F00060D4
:102550003FE0009500210195206802F0B5FD800163
:102560001CD46946204602F0F7FD70BB0198400379
:102570002DD5B4F848102068090402F04DFA20BBAC
:10258000206802211DE0A06B284322E00095002175
:102590000195206802F098FD800101D53546F2E7EB
:1025A0006946204602F0D8FD78B90198C0030ED5DF
:1025B000B4F848102068090402F02EFA28B92068FF
:1025C000002102F073FA0028DDD00546DBE74D4616
:1025D000D9E7A063A06B012558B12168134888632F
:1025E00084F834500120BDE8FE83A06B40F0805099
:1025F000EFE7D4E90460D4E901123B46042807D28E
:10260000E76DB7F5007F03D0B7F5807F0BD00420CE
:10261000CDF80880CDE90060206802F059FD84F80B
:1026200034500020DFE70220F2E70000FF0FE01F38
:1026300070477047F0B5026E920F0A70026EC2F3D7
:1026400083624A70026EC2F301628A70026E120CDB
:10265000CA70B0F86020120A0A7190F860204A71BE
:10266000426E120DCA80426EC2F303420A72B0F883
:102670006420C2F3C0324A72B0F86420C2F38032E0
:102680008A72B0F86420C2F34032CA72B0F8642093
:102690000026C2F300320A734E730122C36B4FF45B
:1026A000007463B1012B3AD0036850499963816B80
:1026B00041F08051816380F834200120F0BDB0F8F2
:1026C0006430856E9B051B0D43EA95730B61836E29
:1026D000C3F3C2630B75836EC3F302634B75836EE2
:1026E000C3F342538B75836EC3F38243CB75836E02
:1026F000C3F3C2330B760D696D1CC5640B7E03F00A
:1027000007039B1C9D40C5640B7A846503F00F038F
:1027100002FA03F35F0A7D43C0E914350EE090F836
:102720006450836EAD06AD0A45EA13430B610B6935
:102730005B1C9B02C364C0E914438465B0F8683035
:10274000C3F380334B76B0F86830C3F3C6138B768F
:1027500090F8683003F07F03CB76C36EDB0F0B7706
:10276000C36EC3F341734B77C36EC3F382638B773E
:10277000C36EC3F38353CB77C36EC3F3405381F867
:10278000203081F82160C36EC3F3004381F822300A
:10279000B0F86C30C3F3C03381F82330B0F86C303C
:1027A000C3F3803381F82430B0F86C30C3F3403386
:1027B00081F82530B0F86C30C3F3003381F826304F
:1027C000B0F86C30C3F3812381F82730B0F86C3057
:1027D000C3F3012381F8283090F86C00C0F3460061
:1027E00081F8290081F82A200020F0BDFF0FE01FAA
:1027F000C26B0A60026C4A60426C8A60826CCA607A
:10280000C26C0A61026D4A61426D8A61806DC86165
:102810000020704770B5B0F84810002504460068E5
:10282000090402F055FA18B1A16B0143A16304E059
:102830002068002102F048FC0546C5F3432070BD26
:1028400030B591B00C460546694602F005FE58B118
:102850002B68012221499963A96B0143A96385F87B
:102860003420104611B030BD0098C0F381102070A4
:102870000098C0F340106070009A4FF47F401146FA
:1028800000EA122242EA11616180019909BA61608D
:10289000029921720299090A61720299C1F30351E6
:1028A000A172DDE9022100EA1240C9B20843A08109
:1028B0000398C0F38520A0730398C0F30120E07350
:1028C0000398C0F303102074039800F00F006074A5
:1028D0000498000EA0740020C4E70000FF0FE01F62
:1028E0002DE9F84304460068256B416B09041BD5AC
:1028F000290719D5D4E90A50202813D300262068C7
:1029000002F0FCFB020A2870010C6A70030EA97029
:10291000761CEB70082E05F10405F0D3E06A203830
:10292000C4E90A50BDE8F883416B0127DFF8EC8168
:102930000026C90551D539024CF23A1281632907A4
:102940002068C16B21EA0201C1632068C16B21F0DC
:102950008051C1632068C16821F04001C16018D571
:1029600015F0220F09D0206802F0FEF928B1A16B02
:102970000143A1632046FFF75CFE2168AA07C1F866
:10298000388084F83470266323D1204600F094FA0E
:10299000C8E72806C6D5206815F0220F8662206891
:1029A000C6622068066509D0206802F0DDF928B10A
:1029B000A16B0143A1632046FFF73BFE15F0300FEA
:1029C00084F83470266302D0204600F075FAA80718
:1029D000A8D0204600F06CFAA4E7416B490421D549
:1029E00029071FD5D4E9085020289BD30026287832
:1029F0000090697840EA01200090A97840EA0140FF
:102A00000090E9782D1D40EA016000902068694639
:102A100002F08CFB761C082EE9D3606A2038C4E9EA
:102A200008507FE7416B11F03A0F416B58D089078E
:102A300003D5A16B41F00201A163416B090703D5E6
:102A4000A16B41F00801A163416B890603D5A16B1D
:102A500041F02001A163416BC90603D5A16B41F090
:102A60001001A163C0F838802068C16B21F49D710A
:102A7000C1632068C16821F04001C1602068C16A5B
:102A800041F40051C1622068C16841F08001C16019
:102A9000206802F069F9A26B2B074FF4006140EA4D
:102AA0000200A0632068C26822F08002C260206831
:102AB000816303D584F8347026630DE028068BD536
:102AC000A06B002888D02068C16B21F08051C163C1
:102AD0002068066584F834702046FFF7AAFD21E7D8
:102AE000C9009ED54FF0805181632068006D40077A
:102AF0004FEA856008D40028204602DAFFF70CFD73
:102B000010E7FFF707FD0DE70028204602DAFFF780
:102B100002FD07E7FFF7FDFC04E700003A0F00188D
:102B2000F0B5040085B024D094F83400002538B9FD
:102B3000A069257708B90220A061204600F082F83C
:102B4000032084F83400204600F03CF888B9694638
:102B50002046FFF775FE60B99DF81010E26B9DF8F6
:102B60001100012A08D0E5652046E168FFF7D6FC90
:102B700058B1012005B0F0BD014302D04FF4007000
:102B800001E04FF48070E065EEE7FDF72DFF0127CF
:102B9000064604E0FDF728FF801B401C0AD02046B3
:102BA000FFF738FE0428F5D1A563256384F8347057
:102BB0000020DFE74FF00040A06384F8347003206A
:102BC000D8E70000FEB58269002104464FF0FA06FE
:102BD000022A0A46134604D125682F6847F01007D9
:102BE0002F60CDE900360294206802F071FA18B91E
:102BF000206802F07DFA08B10120FEBD4FF480305C
:102C0000FEF70AFB4FF4FA71B0FBF1F020B10C496A
:102C1000B1FBF0F0401C00E00220FDF7B7FD2046BC
:102C200002F076FB4FF0010520B9204602F006FBCA
:102C30000028E2D084F83450A16B0143A163DBE7A4
:102C400010210100F0B587B0044614216846FDF755
:102C500077FB1E492068884235D11D48016841F440
:102C600080310160006800F48030059018480C3015
:102C7000016841F004010160016801F0040105915F
:102C8000016841F0080101600068022400256946DE
:102C900000F00800059003260C274FF4F8508DE84B
:102CA000F1000C48FDF792FD042069468DE8F10023
:102CB0000948FDF78BFD002231201146FEF744F84C
:102CC0003120FEF733F807B0F0BD0000007000526D
:102CD000D444025800080258000C02582DE9F04F65
:102CE00087B09A4617460D460446FDF77DFE0690CE
:102CF0003DB194F83400012807D0A06B40F000509B
:102D00000DE0A06B40F0006009E0626D002007EB71
:102D10000A01A063914204D9A06B40F00070A06347
:102D2000AFE00321804684F834102168C862E06B6C
:102D3000012800D07F0220684FF4007101F09DFE51
:102D4000DFF864914FF0010640B12268C2F8389074
:102D5000A16B0143A16384F8346092E04FF0020B51
:102D60004FF0FF32CDE903B84FEA4A234FF0900C01
:102D7000CDF8148069468DE80C10206802F067F8E1
:102D80002068BAF1010FC16841F04001C16006D965
:102D9000C4F830B03946206801F006FF04E026632D
:102DA0003946206801F01AFF50B12368C3F8389003
:102DB000A26B0243A26384F83460C4F8308060E000
:102DC000DDF804B01FE0406B000414D5BBF1200F08
:102DD00011D30027206802F091F9020A2870010C33
:102DE0006A70030EA9707F1CEB70082F05F10405B3
:102DF000F0D3ABF1200BFDF7F7FD0699411A1098BF
:102E0000814222D208B32068416B11F4957FDAD059
:102E1000C16821F04001C1602068416BC90509D536
:102E2000BAF1010F06D9E16B032903D001F09CFF31
:102E30000028BAD12068416B090715D5C0F8389031
:102E4000A16B404641F0080117E02268C2F83890B3
:102E5000A16B41F00041A16384F83460C4F8308074
:102E6000032007B0BDE8F08F416B89070BD5C0F890
:102E70003890A16B404641F00201A16384F83460B0
:102E800020630120EDE7416B890606D5C0F8389034
:102E9000A16B404641F02001EFE70449816384F8CB
:102EA00034600020DDE70000FF0FE01F3A0F00183C
:102EB00010B5FDF7DDFA10BD10B5FDF7EBFA10BD4A
:102EC0002DE9F04F89B09B4616460D460446FDF7A6
:102ED0008BFD06903DB194F83400012807D0A06B1B
:102EE00040F000500DE0A06B40F0006009E0616D23
:102EF000002706EB0B00A763884204D9A06B40F0C3
:102F00000070A063B3E0032084F834002068C76237
:102F1000E06B012800D0760220684FF4007101F0C8
:102F2000ACFDDFF88CA14FF0010840B12368C3F875
:102F300038A0A16B0143A16384F8348097E04FEA85
:102F40004B224FF0FF3190230597CDE90237CDE9B1
:102F500000120497B9462068694601F078FF20689E
:102F6000C168BBF1010F41F04002C26006D92020C8
:102F700020632068314601F036FF05E01020206311
:102F80002068314601F049FF060007D0236841461A
:102F90004846C3F838A0A26B324364E00198089019
:102FA00027E0406B40041CD50898202819D300273F
:102FB00028780790697840EA01200790A97840EACC
:102FC00001400790E9782D1D40EA016007902068D4
:102FD00007A902F0ABF87F1C082FE9D30898203826
:102FE0000890FDF701FD0699411A1298814221D2FD
:102FF00000B32068416B11F48D7FD2D0C16821F0FD
:103000004001C1602068416BC90521D5BBF1010FAA
:103010001ED9E16B03291BD001F0A6FEC0B12568C3
:10302000C5F838A0A36B0343A36384F83480C4F8C5
:1030300030901CE02368C3F838A0A16B3143A16332
:1030400084F83480C4F83090032009B0BDE8F08FD4
:103050002068416B09070CD54146C0F838A0A26B27
:10306000484642F00802A26384F83410206301202D
:10307000EBE7416B890709D5C0F838A0A16B48463A
:1030800041F00201A16384F83480EFE7416BC90687
:1030900007D54146C0F838A0A26B484642F010025E
:1030A000E1E7044A826384F834800020CDE7000021
:1030B000FF0FE01F3A0F0018401EB0F1807F10B5DF
:1030C00001D3012010BD4FF0E02460610F21601793
:1030D00003F0A6FC0020A0610721216110BD70470C
:1030E0007047704770B590F83C20012A24D0134CEB
:1030F000012580F83C50022280F83D200268536888
:10310000A242966802D00E4CA24203D14C6823F42E
:10311000700323430C6823F0700389681C435460D8
:10312000002326F0800602683143916080F83D500C
:1031300080F83C30184670BD022070BD0000014090
:103140000004014010B5040003D094F83D0010B114
:1031500007E0012010BD002084F83C00204600F06C
:103160000DF8022084F83D002068211D02F01EFBAE
:10317000012084F83D00002010BD000008B5006863
:10318000B0F1804F12D10A48016841F0010101609D
:1031900000680022114600F0010000901C20FDF79D
:1031A000D3FDBDE808401C20FDF7C0BD08BD0000F0
:1031B000E844025870B5044690F83C00012814D049
:1031C000394B012584F83C50022084F83D002268E8
:1031D0009068184020F47F4090600868702828D0DC
:1031E00010DC10F00F0F03D04BE04FF0020070BD69
:1031F0004FEA2012072A44D2DFE802F05151515120
:1032000049323A00B0F1101F49D009DCB0F5805FB7
:1032100037D0B0F5005F17D0B0F5801F31D13EE058
:10322000A0F5801120393AD0102938D0202928D192
:1032300035E04A682068D1E9021302F019FB2068E2
:10324000816841F0770109E04A682068D1E90213FA
:1032500002F00EFB2068816841F48041816010E03B
:10326000CA684968206802F017FB2068502106E010
:10327000CA684968206802F020FB2068602102F0DB
:1032800001FB002084F83D5084F83C0070BDCA6802
:103290004968206802F000FB20684021EFE72268BF
:1032A00001461046EBE7000088FFCEFF704770B57F
:1032B0000446006800250169C943890715D4C1681F
:1032C000C943890711D4EA1E0261012121772068D0
:1032D00080698007204602D0FFF7E8FF04E000F095
:1032E000A7F8204600F0A5F8257720680169C943B2
:1032F000490717D4C168C943490713D402216FF0A5
:103300000402026121772068806910F4407F204622
:1033100002D0FFF7CBFF04E000F08AF8204600F06F
:1033200088F8257720680169C943090716D4C16860
:10333000C943090712D404216FF008020261217702
:103340002068C0698007204602D0FFF7AFFF04E085
:1033500000F06EF8204600F06CF8257720680169CF
:10336000C943C90617D4C168C943C90613D4082183
:103370006FF01002026121772068C06910F4407F6D
:10338000204602D0FFF792FF04E000F051F82046FB
:1033900000F04FF8257720680169C943C90708D1B3
:1033A000C168C943C90704D1891E0161204600F0E4
:1033B00041F820680169C943090609D4C168C943B5
:1033C000090605D46FF0800101612046FFF788FEF1
:1033D00020680169C943C90509D4C168C943090600
:1033E00005D46FF4807101612046FFF778FE2068F4
:1033F0000169C943490609D4C168C943490605D4CE
:103400006FF040010161204600F015F82068016965
:10341000C94389060BD4C168C943890607D46FF034
:10342000200101612046BDE87040FFF75ABE70BD23
:10343000704770477047704730B590F87C1001298D
:1034400018D0012280F87C202421C0F880100022AE
:10345000202450F8601B0B680D6823F0005325F002
:1034600001050D60426050F8601C0B600462027739
:10347000104630BD022030BD704770B5044690F84C
:103480007C0001281DD0012284F87C202420C4F86F
:10349000800020680568026822F00102026020684E
:1034A000826822F060620A438260204602F030FAAD
:1034B0002268202100201560C4F8801084F87C0068
:1034C00070BD022070BD70B5044690F87C000128E4
:1034D0001DD0012284F87C202420C4F880002068BC
:1034E0000568026822F0010202602068826822F00A
:1034F00060420A438260204602F00AFA22682021D4
:1035000000201560C4F8801084F87C0070BD022093
:1035100070BD7047704770472DE9F041036804465D
:10352000002540F60F06D86919689A68304209D11B
:1035300086067DD501F0200602F080573E4377D005
:10354000E16E9EE0614E624F16400F4037436FD0F0
:10355000C70709D0CF0507D501271F62D4F88830E7
:1035600043F00103C4F8883083070AD5D30708D095
:10357000276802233B62D4F8883043F00403C4F880
:10358000883043070AD5D30708D0276804233B6255
:10359000D4F8883043F00203C4F8883003070CD510
:1035A00001F02003334308D0266808233362D4F89F
:1035B000883043F00803C4F8883003050BD54B016D
:1035C00009D526684FF400633362D4F8883043F09D
:1035D0002003C4F88830D4F88830002B34D080061B
:1035E00009D501F0200002F08051084303D0E16EBC
:1035F00009B1204688472168D4F8880089684906BF
:1036000002D410F0280F21D0204602F051FA206891
:103610008168490615D5816821F040018160A06F5D
:1036200078B12C490165A06FFCF7CAFF002800E0C3
:1036300012E009D0A06F016D00E02046BDE8F04126
:1036400008472046FFF767FFBDE8F0812046FFF7F7
:1036500062FFC4F88850F7E7C60209D5560207D5BD
:103660004FF4801018622046BDE8F041FFF752BFCA
:10367000060609D501F0800602F40002164303D0C5
:10368000216F0029D9D1DFE742060DD54A060BD5B7
:103690001A682021204622F040021A60C4F88010E7
:1036A000256700F0E5FBCFE7020206D54A0004D506
:1036B0002046BDE8F041FFF72CBFC001C4D500296A
:1036C000C2DA2046BDE8F041FFF7D6BE0100001087
:1036D000200100049B5A000810B5040003D0D4F860
:1036E000800010B107E0012010BD002084F87C00AC
:1036F000204600F027F82420C4F8800020680168E4
:1037000021F001010160204602F0EAFA0128EBD025
:10371000A06A10B1204602F02DF92068416821F41A
:10372000904141602068816821F02A018160206811
:10373000016841F0010101602046BDE8104002F03F
:103740007DB900002DE9F04F87B006461421684688
:10375000FCF7F6FDE0480024E24B02253268083809
:10376000DD490127DFF874B39A42DFF874A34FF004
:1037700008084FF0030943D10A6842F400220A60A6
:10378000096801F400210591016841F0020101601E
:10379000016801F002010591016841F00101016039
:1037A000016801F001010591016841F00801016023
:1037B0000068DE130096694600F00800CDE9015468
:1037C0000394CDE904805846FDF700F80096694659
:1037D000CDE90154CDE903485046FCF7F7FFC24854
:1037E0006946CDE90274CDE90095CDF81080FCF76B
:1037F000EDFF002234201146FDF7A6FA342023E025
:10380000BA4B9A4225D10A6842F480120A600968CC
:1038100001F480110591016841F002010160006826
:103820000E2100F002000590CDE903414FF4405015
:1038300069468DE8A1005846FCF7C8FF00223520F4
:103840001146FDF781FA3520FDF770FA07B0BDE8A3
:10385000F08FA74B4FF007069A422BD10A6842F02F
:1038600080420A60096801F080410591016841F0D9
:10387000200101600068694600F020000590C0202A
:103880008DE8A1009B4FCDE903463846FCF79EFF2B
:103890004FF440700090CDE90154CDE903466946EC
:1038A0003846FCF793FF002252201146FDF74CFAF0
:1038B0005220C9E7904B9A4233D10A6842F0004245
:1038C0000A60096801F000410591016841F00801B2
:1038D0000160016801F008010591016841F01001E3
:1038E00001600068694600F0100005904FF4404008
:1038F0000090CDE901547C48CDE90348FCF766FF10
:103900007E486946CDE90274CDE90095CDF8108076
:10391000FCF75CFF002253201146FDF715FA5320F7
:1039200092E76D4B4FF4C058DFF8D4C108336245BD
:103930003BD1196841F010011960196801F01001BC
:103940000591016841F001010160016801F0010188
:103950000591016841F0020101600068694600F0CC
:10396000020005904FF480608DE8A100CDE9034688
:103970005046FCF72BFFCDF800806946CDE9015495
:10398000CDE903465046FCF721FF402069468DE80B
:10399000A100CDE903465846FCF718FF0022252078
:1039A0001146FDF7D1F925204EE7DFF858C16245F1
:1039B00029D10A6842F400320A60096801F4003132
:1039C0000591016841F00101016000686946CDF888
:1039D000009000F00100CDE901540394CDE90460AA
:1039E0005046FCF7F3FE0C2069468DE8A100CDE9B6
:1039F00003465046FCF7EAFE002226201146FDF75A
:103A0000A3F9262020E7DFF800C162452BD10A6820
:103A100042F480220A60096801F48021059101685E
:103A200041F0080101600068694600F00800059057
:103A30004FF440708DE8A1002B4FCDE90346384686
:103A4000FCF7C4FECDF800806946CDE90154CDE90C
:103A500003463846FCF7BAFE002227201146FDF740
:103A600073F92720F0E629498A427FF4EFAE1968FE
:103A700041F020011960196801F0200105910168E9
:103A800041F040010160016801F0400105910168C9
:103A900041F0040101600068694600F004000590EF
:103AA0004FF404500090CDE901541948CDE9034684
:103AB000FCF78CFEC0200090CDE901541548694602
:103AC000CDE90346FCF782FE002247201146FDF7B0
:103AD0003BF94720B8E60000E844025800040258C9
:103AE00000000258004C0040000C025800500040FA
:103AF0000078004000140258007C0040001002587A
:103B00000010014000440040004800400014014003
:103B100000180258000802582DE9F84F0446D0F862
:103B200084009B4616460D4620286FD1FDB1F6B1A4
:103B300094F87C00012869D0012284F87C2022219D
:103B40004FF00008C4F88880C4F884102034FCF7D3
:103B50004BFF824654F8180CA6874FF48053E68733
:103B6000FF21203C984208D122691AB119E00120B6
:103B7000BDE8F88F40F2FF1113E04FF07F0270B103
:103B8000B0F1805F10D0A4F8608000BFB4F860701E
:103B9000984201D1206970B12E4600250CE02669BB
:103BA00036B9A4F86010F1E7216909B13F21F8E7BF
:103BB000A4F86020EAE7002607F0FF09B4F85E00E9
:103BC000E0B10022534620212046CDF800B002F09B
:103BD0008FFE08B10320CBE72068406A56B100EAA7
:103BE000090006F8010B00BFB4F85E00401EA4F8FF
:103BF0005E00E3E7384025F8020BF5E72021C4F822
:103C00008410002084F87C80B2E7FFE70220AFE751
:103C100070B5D0F88430202B6CD1B9B1B2B190F826
:103C20007C30012B66D08468012580F87C5000230D
:103C300081652E03C366B442A0F85C20A0F85E2024
:103C40004FF0FF0107D1046914B11DE0012070BDE0
:103C500040F2FF1118E04FF07F059CB1B4F1805F96
:103C600015D0A0F860302221C0F88830C0F8841048
:103C700001688C6844F001048C60416EB1F1005F12
:103C80000CD025E0046934B9A0F86010EBE70169B5
:103C900009B13F21F8E7A0F86050E4E7B0F86810F8
:103CA000914215D88168B14201D1016971B11249BF
:103CB000C16680F87C3001680A6842F480720A604C
:103CC0000068816841F0805181600FE00B49EFE7A7
:103CD0008168B14201D1016951B10949C16680F8D9
:103CE0007C300068016841F490710160002070BD73
:103CF0000449F3E7022070BD3D5C0008395B000811
:103D0000DD5B0008D95A000810B5016804461D485B
:103D1000814200D1FEE71C48814200D1FEE71B48EA
:103D2000814200D1FEE71A48814200D1FEE71948DE
:103D300081421BD11849194A0878042806D2401C30
:103D4000C0B20870022816D010B103E0002008703D
:103D50000220107008785C22C0EBC00101EB00105B
:103D60000F4901EB80010F48FFF752FF0E49206811
:103D7000884202D1FEE70120EBE70C49884200D1DE
:103D8000FEE710BD00100140004400400048004024
:103D9000004C0040005000402C0000202400002077
:103DA000780200206001002000780040007C004084
:103DB0002DE9F8430446D0F880001F4616460D460C
:103DC000202852D1DDB1D6B194F87C0001284CD026
:103DD000012284F87C2021214FF00008C4F888805B
:103DE000C4F880101834FCF7FFFD814654F8100C1D
:103DF000A687E687183CB0F5805F03D004E0012079
:103E0000BDE8F883206910B12E46002510E0002699
:103E10000EE08021204602F06BFDB8B9C6B116F85D
:103E2000010B21688862B4F85600401EA4F85600C1
:103E3000B4F856004B464FF0000200970028E8D136
:103E40004FF04001204602F053FD38B10320D7E780
:103E500035F8020B2168C0F30800E3E72021C4F81D
:103E60008010002084F87C80CAE70220C8E70000A8
:103E700000680C49884200D1FEE70B49884200D116
:103E8000FEE70A49884200D1FEE70949884200D18D
:103E9000FEE70849884200D1FEE70749884200D181
:103EA000FEE770470010014000440040004C004015
:103EB0000050004000780040007C0040FEE7000019
:103EC0000148FCF7EFBD0000540000200148FCF75A
:103ED0001DBE00005400002010B5806B0021826BD5
:103EE0001165C26B116590F84110602902D0FCF792
:103EF00015FE10BD202180F84110FCF7D1FD10BD4A
:103F0000CA074FF028034FF0000210B506D090F812
:103F10004140422233EA040400D0F2228C0707D544
:103F200090F8414042F04402A34301D042F0B00275
:103F30004B0701D542F0B80211238B4301D142F067
:103F4000900212238B4301D142F0600200680168A5
:103F50009143016010BD01688A69D243920701D480
:103F600000228A6200688169C943C90703D0816958
:103F700041F00101816170472DE9F041044690F85C
:103F800041002821002508238143206804D0C36113
:103F900084F84050BDE8F081876986694FF0FE0ED5
:103FA0008168C268C7F30047D4F80CC00EEA164611
:103FB00002F0FE02BCF1020FC1F3090118D14FF06B
:103FC000060C06F006060CEAD11C66450FD1A66C5D
:103FD0000A46761CA664A16C0229DBD1A564C361E4
:103FE00084F8405039462046FCF75BFDD2E7164680
:103FF00020460421FFF784FF324684F84050F1E761
:1040000070B5344A0025044690F84100202684F813
:104010004250E2626585626C282842EA01026264CD
:1040200025D0292823D02A2821D007212046FFF790
:1040300067FF94F84100602801D084F8416025634F
:104040006563206824490268520402681AD522F484
:1040500080420260A06B002833D0016584F8405094
:10406000A06BFCF7ADFA00282BD0A06B1CE003215D
:104070002046FFF745FF19492820616384F8410075
:104080002563DEE7120413D5026822F400420260C1
:10409000E06B002815D0016584F84050E06BFCF718
:1040A0008FFA00280DD0E06B016DBDE87040084725
:1040B00094F84100602805D0204684F84050FCF771
:1040C0002DFD70BD84F84160204684F84050FCF717
:1040D000E7FC70BD0000FFFFD93E00081D4300084B
:1040E00070B50446164AC843002541074FF020002A
:1040F000E262256384F8410084F84250656311D47C
:104100002068616A406A0870606A401C6062208DA5
:1041100040B1618D401E2085491E6185606C40F074
:104120000400606407212046FFF7EAFE21681020A2
:10413000C861204684F84050FCF74EFD70BD000079
:104140000000FFFF2DE9F05F0446006820260D46C1
:104150000768C66107212046FFF7D2FE2068504954
:10416000426842F400424260206842680A4042606D
:104170002046FFF7F0FEF8434A4FDFF828C1183712
:10418000494B4A4A41044A49DFF82891DFF828A1FF
:10419000DFF828B1DFF828E104D4A06B05E040681F
:1041A00060852FE000042DD4E06B58B3DFF8F48075
:1041B0000068A8F118084045F1D06045EFD0B8423A
:1041C000EDD09842EBD09042E9D08842E7D0484504
:1041D000E5D05045E3D05845E1D07045DFD03849AF
:1041E00018318842DBD0364930318842D7D0344943
:1041F00048318842D3D0324960318842CFD03049EB
:104200007831CCE7E84340070FD4206825F0040557
:10421000616A406A0870606A401C6062208D20B14B
:10422000618D401E2085491E6185608D18B1606CCE
:1042300040F0040060640027276384F84270606CDB
:10424000676368B1616C2046FFF7DAFE94F84100BD
:10425000282814D129462046BDE8F05FFFF740BF6B
:10426000E06A184DA8420CD0204600F02DF8E56217
:1042700084F84160204684F84070FCF7ADFCBDE84E
:10428000F09F94F8410084F841602228204684F889
:10429000407002D0FCF7E7FCF1E7FCF7E3FCEEE747
:1042A00000E800FE28000240580002407000024072
:1042B00088000240A0000240B80002401004024002
:1042C000280402400000FFFF70B5044600252820A6
:1042D00084F8425094F84110292911D094F84110E3
:1042E0002A290CD1222184F8410021630221204691
:1042F000FFF706FE204684F84050FCF7B3FC70BD83
:10430000212184F84100216301212046FFF7F8FDB7
:10431000204684F84050FCF7A6FC70BD2DE9F04122
:1043200090F840300446C06A0D46012B1DD0E94389
:10433000012384F840306FEA0206404ACF064FF06E
:10434000807331D4F7062FD4678D102187B122688E
:10435000D161616C41F00401616408B1984260D19F
:10436000616C2046FFF74CFE5BE00220BDE8F08167
:1043700094F84130282B02D1B0F1007F04D094F89A
:104380004130292B05D00CE029462046FFF7A8FE36
:1043900047E0904205D02068C1612046FFF7DBFD71
:1043A0003CE02068C1613CE04F0717D4770715D483
:1043B000618D71B1216825F00405636A496A19703D
:1043C000616A491C6162218D491E2185618D491EEA
:1043D0006185618D29BB904220D122E00A0706D475
:1043E000320704D429462046FFF7C6FD19E08907A5
:1043F00017D4B10715D4618D69B1606A216800785E
:104400008862606A401C6062608D401E6085208DFD
:10441000401E208505E0984200D010B92046FFF7E5
:1044200053FFE843800605D4B00603D4294620464E
:10443000FFF788FE002084F8400097E70000FFFFA8
:104440000449054810B5FCF797F80249491E087061
:1044500010BD00002F000020BC77000830B587B0E9
:1044600014216846FBF76CFF1E48016841F02001EB
:104470000160016801F020010591016841F001012E
:104480000160016801F001010591016841F002013C
:104490000160016801F002010591016841F0080125
:1044A0000160016801F008010591016841F0100107
:1044B0000160006844F281040B4D002200F01000FE
:1044C000214605902846FCF784FA0021009401203B
:1044D000CDE90101284603916946FCF777F907B059
:1044E00030BD0000E0440258000402580E4800218C
:1044F00010B50C4C01230D4A0460C0E90121C0E94C
:10450000033141618161C1610162FCF709FB064829
:104510000021FCF76FFABDE8104003480021FCF7CA
:1045200095BA00000054004054000020FFECC01079
:1045300010B588B01148002449F63F424FF0804141
:1045400000949310019402940394049405940694A7
:1045500080E81600C0E903348461FEF7F3FD4FF4F0
:104560008050009005486946FEF724FE034804A9E0
:1045700004940694FEF7B6FD08B010BD200100209B
:104580001049002210B50E4C0C230C60C1E9010249
:10459000CA600846C1E904238A61CA610A624A62A4
:1045A0008A62FFF799F807480021FEF78CFF05485B
:1045B0000021FEF762FFBDE810400248FEF73CBF55
:1045C000004C0040E80300201049002210B50E4CBA
:1045D0000C230C60C1E90102CA600846C1E904234A
:1045E0008A61CA610A624A628A62FFF775F80748FF
:1045F0000021FEF768FF05480021FEF73EFFBDE8F9
:1046000010400248FEF718BF005000406001002033
:104610001049002210B50E4C0C230C60C1E90102B8
:10462000CA600846C1E904238A61CA610A624A6213
:104630008A62FFF751F807480021FEF744FF05485A
:104640000021FEF71AFFBDE810400248FEF7F4BE55
:1046500000780040740400201049002210B50E4C70
:104660000C230C60C1E90102CA600846C1E90423B9
:104670008A61CA610A624A628A62FFF72DF80748B6
:104680000021FEF720FF05480021FEF7F6FEBDE8F9
:1046900010400248FEF7D0BE007C0040000500201C
:1046A0001049002210B50E4C0C230C60C1E9010228
:1046B000CA600846C1E904238A61CA610A624A6283
:1046C0008A62FFF709F807480021FEF7FCFE05485B
:1046D0000021FEF7D2FEBDE810400248FEF7ACBE56
:1046E000001001408C0500201049002210B50E4C2E
:1046F0000C230C60C1E90102CA600846C1E9042329
:104700008A61CA610A624A628A62FEF7E5FF074867
:104710000021FEF7D8FE05480021FEF7AEFEBDE8F9
:1047200010400248FEF788BE0044004018060020F2
:104730001049002210B50E4C0C230C60C1E9010297
:10474000CA600846C1E904238A61CA610A624A62F2
:104750008A62FEF7C1FF07480021FEF7B4FE054854
:104760000021FEF78AFEBDE810400248FEF764BE55
:1047700000480040EC0100201149002270B50F4DA7
:104780000C2301F110060D60C1E901029C01CA6011
:1047900086E81C00CA6108460A624A628A62FEF71D
:1047A0009BFF07480021FEF78EFE05480021FEF71B
:1047B00064FEBDE870400248FEF73EBE00140140B2
:1047C000A4060020FEE77047704700002DE9F0477F
:1047D000454D044689464FF0000A2868C0438007CB
:1047E0000AD0414E283E306820F080603060FCF7EF
:1047F000FBF80746B04608E00120BDE8F08700BF9F
:10480000FCF7F2F8C01B022867D8D8F800000001B6
:10481000F6D4206829684FF4FE0721F47C313E026B
:1048200041EA00302860207AA389B4F804C040022D
:104830002D4D2D495B1E227CACF1010C1035091D5C
:10484000A0F5007080B2521ECCF3080C07EA0343B7
:1048500040EA0C00184306EA026210432860086828
:10486000626920F0C000104308600A68A06922F065
:10487000200202430A60281D0A6822F010020A6022
:1048800002684FF6F873E4699A4342EAC402026090
:104890000868B9F1000F40F010020A6011D00868F2
:1048A000B9F1010F11D040F400100860D8F80000F1
:1048B000444640F08060C8F80000FCF795F80546D3
:1048C0000DE0086840F40020EFE740F48010ECE7CA
:1048D000FCF78AF8401B022801D903208DE72068E5
:1048E0000001F5D5504688E7284402582DE9F047E5
:1048F000454D044689464FF0000A2868C0438007AA
:104900000AD0414E283E306820F080503060FCF7DD
:104910006BF80746B04608E00120BDE8F08700BF0D
:10492000FCF762F8C01B022867D8D8F800008000A6
:10493000F6D4208829684FF4FE0721F07C713E02EE
:1049400041EA00502860207AA389B4F804C04002EC
:104950002D4D2D495B1E227CACF1010C1835091D33
:10496000A0F5007080B2521ECCF3080C07EA034396
:1049700040EA0C00184306EA026210432860086807
:10498000626920F44060104308600A68A06922F45C
:10499000007202430A60281D0A6822F480720A60CD
:1049A00002684FF6F873E4699A4342EAC40202606F
:1049B0000868B9F1000F40F480720A6011D00868ED
:1049C000B9F1010F11D040F080700860D8F80000F4
:1049D000444640F08050C8F80000FCF705F8054652
:1049E0000DE0086840F48000EFE740F40000ECE7D9
:1049F000FBF7FAFF401B022801D903208DE720684E
:104A00008000F5D5504688E7284402580148FDF754
:104A100067BF0000A000002030B585B004463720F5
:104A20004FF480720DF1080CCDE9001000236946A7
:104A3000150120468CE82C0000F064FB372141F280
:104A40008832204600F016FA05B030BD30B585B08A
:104A5000044629204FF480720DF1080CCDE90010B6
:104A600000236946150120468CE82C0000F04AFB23
:104A7000204600F0BBFA05B030BD30B5044610202A
:104A800085B00DF1080C02010502CDE900100023EC
:104A900069468CE82C00204600F034FB102141F2DE
:104AA0008832204600F0E6F905B030BD30B585B05B
:104AB000044606204FF480720DF1080CCDE9001079
:104AC00000236946150120468CE82C0000F01AFBF3
:104AD000062141F28832204600F0CCF905B030BD05
:104AE00030B585B00546002469464FF480500094E7
:104AF00001940294CDE90340284600F003FB0B4AE1
:104B00004FF4FA5041F288311268B2FBF0F048439A
:104B1000401E03D24FF0004005B030BD696B09065E
:104B2000F6D503492046A963F6E7000040000020BF
:104B3000C500200030B50821044685B04FF4D5707B
:104B400000254A014B0204938DE827006946204660
:104B500000F0D8FA134A4FF4FA5041F28831126843
:104B6000B2FBF0F04843401E03D24FF0004005B0C6
:104B700030BD616B11F0450FF5D08904F3D4606B43
:104B8000400701D5042003E0606BC00702D001207C
:104B9000A063ECE7606B400601D54020A063284687
:104BA000E5E700004000002030B585B00446122043
:104BB0004FF480720DF1080CCDE900100023694616
:104BC000150120468CE82C0000F09CFA122141F2DD
:104BD0008832204600F04EF905B030BD30B585B0C2
:104BE000044611204FF480720DF1080CCDE900103D
:104BF00000236946150120468CE82C0000F082FA5B
:104C0000112141F28832204600F034F905B030BD60
:104C100030B585B004464FF480710DF1040C0720C7
:104C2000009200230D018CE82B006946204600F01D
:104C300069FA072141F28832204600F01BF905B0DD
:104C400030BD10B586B00446002102204FF44072FA
:104C5000C3020493CDE90010CDE902216946204644
:104C600000F050FA204600F097F906B010BD30B5BC
:104C700085B0044609200DF1080C0023CDE9001091
:104C80004FF4407269464FF4805520468CE82C0062
:104C900000F038FA204600F07FF905B030BD10B5BD
:104CA00086B00446002133204FF48072CDE9022102
:104CB000CDE90010130169462046049300F022FA62
:104CC000332141F28832204600F0D4F806B010BDFE
:104CD00030B585B004460D204FF480720DF1080CFC
:104CE000CDE9001000236946150120468CE82C0010
:104CF00000F008FA0D2141F28832204600F0BAF89F
:104D000005B030BD30B585B00C4600210546032006
:104D10004FF48072CDE90221CDE9001013016946FC
:104D20002846049300F0EEF903212246284600F0BD
:104D300081F905B030BD10B586B0044600210D20C4
:104D40004FF48072CDE90221CDE9001013016946CC
:104D50002046049300F0D6F90D2141F28832204616
:104D600000F088F806B010BD10B586B004464FF4C8
:104D7000807200200C2113018DE80700CDE90303A8
:104D8000E06840F08000E060E06820F04000E06013
:104D90006946204600F0B6F9054A0C21204600F08D
:104DA00069F8E16821F08001E16006B010BD000003
:104DB00000E1F50510B586B0044600210B204FF444
:104DC0008072CDE90221CDE9001013016946204629
:104DD000049300F097F90B2141F28832204600F04D
:104DE00049F806B010BD30B585B0044619204FF41F
:104DF00080720DF1080CCDE9001000236946150101
:104E000020468CE82C0000F07DF9192141F288320F
:104E1000204600F02FF805B030BD30B585B004460F
:104E200018204FF480720DF1080CCDE9001000231A
:104E30006946150120468CE82C0000F063F9182122
:104E400041F28832204600F015F805B030BD70B54B
:104E50000A6842624A688262C46AD1E90225D1E9DD
:104E6000043624F0FF012A4333431A431143C1623D
:104E7000002070BD30B5464D4FF4FA53434C2D68B9
:104E8000B5FBF3F353435B1E02D24FF0004030BD3D
:104E9000426B2242F7D09204F5D4426B520703D5FD
:104EA00004218163084630BD426BD20702D0012144
:104EB000816306E0354A803282630269D2B28A4257
:104EC00001D0012030BD002100F0FEF83149084238
:104ED00001D1002030BD002802DA4FF0007030BD53
:104EE000410001D5402030BD810001D5802030BD7A
:104EF000C10002D54FF4807030BD010102D54FF4DE
:104F0000007030BD410102D54FF4806030BDC10159
:104F100002D54FF4006030BD010202D54FF480503D
:104F200030BD410202D54FF4005030BD810202D5A0
:104F30004FF4804030BDC10202D54FF4004030BD77
:104F4000410302D54FF4003030BD810302D54FF448
:104F5000802030BDC10302D54FF4002030BD0104D4
:104F600002D54FF4801030BD410402D54FF400103B
:104F700030BD810402D54FF4800030BD000702D55A
:104F80004FF4000030BD4FF4803030BD45002000AC
:104F90004000002008E0FFFD124B4FF4FA5141F2AF
:104FA00088321B68B3FBF1F15143491E02D24FF026
:104FB00000407047426B12F0450FF6D09204F4D4D3
:104FC000416B490703D50421816308467047416B53
:104FD000C90703D0012181630846704702498163F4
:104FE0000020704740000020C50020000F4B4FF408
:104FF000FA5141F288321B68B3FBF1F15143491E6B
:1050000002D24FF000407047426B12F0450FF6D0CD
:105010009204F4D4416B490703D504218163084607
:105020007047034981630020704700004000002062
:10503000C500200030B5204D4FF4FA5341F28834BA
:105040002D68B5FBF3F363435B1E02D24FF00040C3
:1050500030BD446B14F0450FF6D0A404F4D4436B78
:105060005B0703D504218163084630BD436BDB0732
:1050700002D00121816303E00369DBB28B4201D0DE
:10508000012030BD0D498163002100F01DF810F4AE
:10509000604F04D0410406D54FF4005030BD000CE1
:1050A0001080002030BD000402D54FF4805030BD88
:1050B0004FF4803030BD000040000020C5002000CB
:1050C000006800F003007047084440697047000022
:1050D00030B511434268DDE903542B43034D1943B6
:1050E00021432A400A434260002030BD002CC0FF0B
:1050F000016841F00301016000207047D0F8800092
:105100007047000070B5084D0A688260C368D1E935
:105110000126D1E903412B4032430C432243134380
:10512000C360002070BD0000C0E0FEFF0968C0F849
:10513000801000207047000010B5064C0120207040
:10514000FBF754F918B9207820F00100207020787E
:1051500010BD00002D0000202DE9F04F87B00D4656
:105160000446FBF741FC0026069020680821B34660
:105170003746FFF782FC002833D1B4F84810206886
:105180000904FFF749FC00282BD1431E4FF0080902
:105190004FF0020A4FF0300C4FF00108CDF80CA090
:1051A0008DE80812CDE9046820686946FFF74FFED4
:1051B0002068FFF774FD002813D140F22A582068B8
:1051C000416B11EA080F06D1416B090315D4BBF1FD
:1051D000000F09D011E0416B090717D5C0F83890CE
:1051E000082007B0BDE8F08FFFF788FF064620686B
:1051F000FFF784FF07464FF0010BFBF7F5FB06991D
:10520000401A401CDBD14FF00040EAE7416B8907B0
:1052100003D5C0F838A00220E3E7416B890603D527
:10522000202181630846DCE7034A39BA33BA826336
:105230000020C5E90013D4E73A0F001810B58CB070
:1052400004460120ADF82C002068FFF739FF002844
:1052500053D0E06B032841D02068FFF7F2FC002810
:1052600049D120680021FFF72FFF20670421206823
:10527000FFF72AFF606708212068FFF725FFA06776
:105280000C212068FFF720FFE16BE067032925D0A0
:1052900020680BA9FFF736FD00282CD1E06B03280E
:1052A0001CD0BDF82C10A16420680904FFF7DFFCB6
:1052B000002820D120680021FFF706FF2066042186
:1052C0002068FFF701FF606608212068FFF7FCFEF9
:1052D000A0660C212068FFF7F7FEE0660421206835
:1052E000FFF7F2FE000D694660642046FDF7A2F963
:1052F00030B14FF080500CB010BD4FF08060FAE735
:10530000B4F84800002302042068FFF781FCF2E7AC
:105310002DE9F84F00260446354637460096FBF740
:1053200063FB80462068FFF7DBFB002867D120681D
:10533000FFF700FC4FF001094FF6FF7A48B12664F1
:105340002068FFF7CDFB002859D1206C012802D03E
:105350001CE0C4F8409000212068FFF75DFBE0BB33
:1053600014E020680021FFF757FB002847D1206890
:105370005946FFF76BFB80BB20680021FFF7A4FEB6
:10538000C70F05460098401C009003E0DFF8C4B04A
:1053900056460098B04201D2002FE2D0B0424FF002
:1053A000807749D2680052D5A169C4F83C9002299F
:1053B0004DD1E8014BD50D02E5652068016841F04B
:1053C000080101602068FFF7F5FC002817D1AE0541
:1053D0002068406B400108D400E00EE0FBF704FBBE
:1053E000A0EB0800401CF3D128E021684FF080605A
:1053F00088632068406BC00203D44FF08050BDE842
:10540000F88F0120FDF714F92068016841F00401CC
:10541000016005E0FBF7E8FAA0EB0800401C0DD0A6
:105420002068406B8001F5D521684FF000708863DB
:105430002068416BC90203D53846E0E73046DEE715
:1054400013224FF0FF31026020688163E565002080
:10545000D5E70000000010C12DE9F04186B00D46EF
:105460000446FBF7C1FA002107462068FFF72CFE2F
:10547000800104D54FF4006006B0BDE8F0812068DB
:105480004021FFF7FAFAC0B9B4F8481020680904BF
:10549000FFF7C2FA88B940214FF0FF3060224FF089
:1054A000010C022300268DE84F1020686946FFF7A3
:1054B000CEFC2068FFF73FFC98B1A16BA163DBE74E
:1054C000406B000407D500262068FFF717FE761C06
:1054D000082E01C5F8D3FBF787FAC01B401C02D188
:1054E00027E04FF000482068416B11F4957FE7D02A
:1054F000416B090701D50820BEE7416B890701D53B
:105500000220B9E7406B80060AD52020B4E700BF2F
:10551000FFF7F4FD01C5FBF767FAC01B401C08D07C
:105520002068416BC904F3D4014603488863002016
:10553000A2E74046A0E700003A0F001870B5064CFD
:10554000054601202070FAF75DFF18B92846FFF7DD
:10555000F3FD2070207870BD2D000020144810B598
:105560008AB014460078C00702D003200AB010BDEC
:1055700039B1012907D002290BD0032910D004200A
:10558000F4E70020F2E76846FAF72AFF06990020C0
:105590000CE06846FAF724FF079900202180E5E730
:1055A0006846FAF71DFF07990020490A2160DDE7E8
:1055B0002D00002070B501241D4616460846A31E86
:1055C0002A463146FAF744FF28B900BFFAF70EFF22
:1055D0000028FBD10024204670BDFFF7ADBD0000C0
:1055E00070B501241D4616460846A31E2A463146BC
:1055F000FAF740FF28B900BFFAF7F8FE0028FBD100
:105600000024204670BD000007281DD2DFE800F00E
:105610001C04070B0F1317000C490D4812E00B492F
:105620000C48891D0EE009490B480C310AE0074976
:105630000A48123106E005490948183102E00349D9
:1056400008481E31FAF727BF0020704700000020ED
:10565000E803002060010020740400200005002001
:105660008C050020180600207047FBF7FDBA0000EB
:1056700010B5CCB04C212FA8FAF762FE202142A829
:10568000FAF75EFEBC216846FAF75AFE0220FBF7E5
:105690008DFB1A491A480A6822F001020A6009685B
:1056A0000168002421F4404141F480410160016817
:1056B00001F440414A9101688904FCD520223894C4
:1056C00002202F900121CDE932122FA8FCF7C6FC51
:1056D0003F204494CDE942040021459442A84694D9
:1056E000479448944994FCF7C1FA03201E941D94F2
:1056F00000906846FBF75EFE4CB010BD2C040058CD
:1057000018480258214A30B5214914680020204B1E
:1057100044F47004146010330A681E4D42F0010214
:105720000A6018600A681A4B2A400A6018331C1D68
:10573000251D174A186028322060131D28601C1D83
:10574000251D10602A1D1860131D20601C1D286077
:10575000251D10601860206028600A680C4B0E4CF4
:1057600022F4802260330A60186020686FF30F0013
:10577000B0F1005F03D209490120C1F808014FF0E0
:10578000006002498039086030BD000088ED00E00B
:10579000004402587FEDF6EA0010005C00800051E2
:1057A0000148FDF784BD0000200100202DE9F047ED
:1057B000274B4FF0804A274D02689842264E274FCC
:1057C000274C09D0504507D0A84205D0B04203D09D
:1057D000B84201D0A04205D1D1F804C022F0700235
:1057E0004CEA0202DFF87CC0DFF87C809842DFF8E8
:1057F0007C900FD050450DD0A8420BD0B04209D0BC
:10580000B84207D0A04205D0604503D0404501D042
:10581000484503D1CD6822F440722A434D6922F0F5
:1058200080022A43026098428A68C2620A688262E1
:1058300007D0A04205D0604503D0404501D048457F
:1058400001D10969016301214161BDE8F0870000D0
:10585000000001400004004000080040000C00402F
:105860000004014000400140004401400048014064
:1058700042EA032283680A4323F47F410A43826099
:1058800070470000034B82681A400A4342F0070148
:10589000816070478FFFCFFF10B5036A046A23F061
:1058A0000A0324F00104046284690B4324F0F0012C
:1058B00041EA02118161036210BD10B5036A23F051
:1058C000100303628369046A23F4704324F0A00484
:1058D00043EA0232826144EA0111016210BD000014
:1058E0000148FDF719BE0000E80300200148FDF75C
:1058F00013BE0000600100200148FDF70DBE00004E
:10590000740400200148FDF707BE000000050020D8
:105910003FB514A1D1E9002314A1CDE90023D1E9B9
:105920000021CDE90221416EB9B1016802AC8A685B
:105930008968C2F34262490F1DF80150615CED00B5
:10594000B5FBF1F1A0F86A101DF80210A25CC900C5
:10595000B1FBF2F1A0F868103FBD0121A0F86A1078
:10596000F8E7000001010103070100000804020438
:105970000801010190F82810C90706D00168C36A20
:105980004A6822F400321A434A6090F828108907C6
:1059900006D50168036B4A6822F480321A434A60D4
:1059A00090F82810490706D50168436B4A6822F42D
:1059B00080221A434A6090F82810090706D501682A
:1059C000836B4A6822F400421A434A6090F8281018
:1059D000C90606D50168C36B8A6822F480521A434F
:1059E0008A6090F82810890606D50168036C8A68D9
:1059F00022F400521A438A6090F82810490611D503
:105A00000168436C4A6822F480121A434A60416C70
:105A1000B1F5801F06D10168836C4A6822F4C00288
:105A20001A434A6090F82810090606D50168C26C2E
:105A3000486820F40020104348607047F8B50026FD
:105A40000446C0F88860FAF7CFFF054620686FF07B
:105A50007E470068000708D500222B464FF400114E
:105A60002046009700F044FF60B9206800684007B6
:105A70000AD500222B464FF480012046009700F003
:105A800037FF08B10320F8BD2020C4F8800084F857
:105A90007C60C4F884000020F8BD10B5806B002144
:105AA000A0F85E10A0F85610FDF735FD10BD0000FF
:105AB00030B501682023074D00240A6822F4907253
:105AC0000A6001688A682A408A60C0F88430C46627
:105AD00030BD0000FEFFFFEF10B5D0F88410B0F825
