:020000040800F2
:10000000A0EB0020AD020008EB4F0008F143000810
:10001000E94F0008DD0A0008717B000800000000BD
:10002000000000000000000000000000B7610008B0
:10003000DF0A000800000000ED4F0008B961000869
:10004000C7020008C7020008C7020008C70200086C
:10005000C7020008C7020008C7020008C70200085C
:10006000E10A0008C7020008C7020008C70200082A
:10007000C7020008C7020008C7020008C70200083C
:10008000C7020008C7020008C7020008C70200082C
:10009000C7020008C7020008C7020008E70A0008F4
:1000A000C7020008C7020008C7020008C70200080C
:1000B00021630008C7020008C702000801440008C5
:1000C000F5430008C7020008C7020008C70200087D
:1000D000C7020008AD760008B9760008C5760008AA
:1000E000C7020008C702000800000000C70200089D
:1000F000C7020008C7020008C7020008C7020008BC
:10010000C70200082D530008C7020008C7020008F4
:10011000616400086D640008C7020008C702000897
:10012000C7020008C7020008C7020008C70200088B
:10013000C7020008C7020008C7020008C70200087B
:1001400000000000000000000000000000000000AF
:10015000C7020008C7020008C7020008D1760008DD
:10016000C7020008C7020008C7020008C70200084B
:10017000C7020008C7020008C7020008000000000C
:10018000C7020008C70200087964000885640008F7
:10019000C7020008C7020008C7020008C70200081B
:1001A000C7020008C7020008C7020008C70200080B
:1001B000C7020008C7020008C7020008C7020008FB
:1001C000C7020008C7020008C7020008C7020008EB
:1001D000C7020008C7020008C7020008C7020008DB
:1001E000C7020008C7020008C7020008C7020008CB
:1001F000C7020008C7020008C7020008C7020008BB
:10020000C7020008C7020008C7020008C7020008AA
:10021000C7020008C7020008C7020008C70200089A
:10022000C7020008C7020008C7020008000000005B
:10023000C7020008C702000800000000C70200084B
:10024000C7020008C7020008C7020008C70200086A
:10025000C7020008C7020008C7020008C70200085A
:10026000C7020008C7020008C7020008C70200084A
:10027000C7020008C7020008C7020008000000000B
:10028000C7020008C7020008C702000800000000FB
:1002900000000000C7020008DFF80CD000F050FAA0
:1002A00000480047919C0008A0EB002006488047CA
:1002B00006480047FEE7FEE7FEE7FEE7FEE7FEE74B
:1002C000FEE7FEE7FEE7FEE7856200089902000808
:1002D0002DE9F05F0546002092469B46884606467B
:1002E000814640241BE0284641464746224600F00E
:1002F0005EF853465A46C01A914110D3114618462B
:10030000224600F045F82D1A67EB01084F462246B9
:100310000120002100F03CF817EB00094E41201E9F
:10032000A4F10104DFDC484631462A464346BDE8D5
:10033000F09FD2B201E000F8012B491EFBD27047BA
:100340000022F6E710B513460A4604461946FFF7A1
:10035000F0FF204610BD421C10F8011B0029FBD104
:10036000801A704730B50B46014600202022012438
:1003700009E021FA02F59D4205D303FA02F5491B73
:1003800004FA02F52844151EA2F10102F1DC30BD89
:10039000202A04DB203A00FA02F100207047914045
:1003A000C2F1200320FA03F3194390407047202A3A
:1003B00004DB203A21FA02F00021704721FA02F30F
:1003C000D040C2F1200291400843194670472DE900
:1003D000FE4F804681EA0300C00F0C46009021F0DA
:1003E000004123F00045B8EB0200A94105D2404688
:1003F000214690461C460B46024623F0004010431F
:1004000047D0270DC7F30A00C3F30A510290401AE0
:10041000019040286BDAC3F3130040F4801B00986E
:10042000924620B10023D2EB030A63EB0B0B019839
:100430005946C0F140025046FFF7AAFF06460D4656
:1004400050465946019A00F08DF910EB08006141C1
:10045000002487EA115284EAE7731A4340D0009AD5
:1004600062B3019A012A4FEA075215DC001B61EBC7
:1004700002014FF0004202EA0752CDE90042001C9F
:1004800041F5801132462B4600F08DF903B0BDE8EE
:10049000F08F40462146F9E7001B61EB0201001C8A
:1004A00041F5801300185B412018A2F5001747EBB7
:1004B000030140EAD570B6196D4111E06D084FEAAD
:1004C000360645EAC0754FEA0752001B61EB020190
:1004D000001C41F5801149084FEA300000195141D4
:1004E00032462B4603B0BDE8F04F00F04DB90098FE
:1004F000012240000023D0EB020263EBE07300987E
:1005000021464FEAE074B8EB000061EB0401E9E733
:1005100083F000435BE781F0004158E72DE9FE4F8F
:1005200081EA030404F0004421F0004100944FF0FC
:10053000000B23F0004350EA01045ED052EA0304AA
:100540005BD0C3F30A54C1F30A552C44A4F2F3342C
:100550000194A0FB0254C1F3130141F48011C3F3D1
:10056000130343F4801301FB024400FB034E840A8F
:10057000970A44EA815447EA8357A4FB0768029527
:100580008D0A05FB07854FEA932C04FB0C542705C5
:10059000029D4FEA065847EA1637B5EB08056EEBA1
:1005A000070C870E920E47EA811742EA8312A7FBD7
:1005B0000201B6EB0B0164EB00042B0D43EA0C3394
:1005C0005E1844EB1C50DA465146E7FB0201C5F3C6
:1005D00013044FEA0B3343EA14534FEA0432019CED
:1005E00043EA0603A4F10C040294009CCDE900B494
:1005F00000F0D9F803B0BDE8F08F00200146F9E71C
:100600002DE9F04D81EA030404F0004B21F0004590
:1006100014464FF0000A23F0004150EA050220D0B2
:1006200054EA01021DD0C5F30A570246C5F313036D
:10063000C1F31300C1F30A5640F4801543F480134C
:10064000A7EB0608101BD64608F2FD3873EB050031
:1006500002D308F1010801E092185B41B8F1000FE4
:1006600003DA00200146BDE8F08D00204FF4801130
:10067000064684460EE0171B73EB050705D3121BD5
:1006800063EB050306434CEA010C49084FEA3000CE
:1006900092185B4150EA0107EDD152EA030012D0F3
:1006A00082EA040083EA0501084305D0101BAB4130
:1006B00006D20122002306E000224FF0004302E0B0
:1006C0006FF0010253101AEB06004CEB085110EBCF
:1006D0000A0041EB0B01BDE8F04D00F055B8C1F345
:1006E0000A52C1F3130140F2FF3341F480119A42E0
:1006F00002DA00200146704740F233439A42A2F2E8
:10070000334202DC5242FFF752BEFFF741BE000007
:1007100030B5041E71F1000404DB4FF00044404288
:1007200064EB0101141E73F1000405DB1C464FF05D
:100730000043524263EB0403994208BF904230BD2C
:10074000064C074D06E0E06840F0010394E807001E
:1007500098471034AC42F6D3FFF7A2FDA0A80008DA
:10076000C0A80008202A06DBCB17203A41FA02F085
:1007700043EAE07306E041FA02F3D040C2F12002FE
:10078000914008431946704710B5141E73F10004D8
:1007900008DA401C41F1000192185B411A4301D173
:1007A00020F0010010BD2DE9F04D92469B4611B19D
:1007B000B1FA81F202E0B0FA80F220329046FFF7FF
:1007C000E7FD04460F4640EA0A0041EA0B015346A2
:1007D0005A46084313D0114653EA010019D0C8F114
:1007E00040025046FFF7E3FD05460E465046594687
:1007F0004246FFF7CDFD084305D0012004E0204626
:100800003946BDE8F08D0020054346EAE0762C43EA
:1008100037430A986305E40AA0EB08000022FD0AAA
:1008200044EA47540A3002D500200146E9E70105B1
:1008300010196941DDE9084500196941BDE8F04D2D
:10084000A2E7000010B501240348610200F0EEFBAE
:1008500000B10024204610BD0000025801460148A6
:1008600002F0C0BBA4060020044810B502F0CCFB87
:10087000042801D0012010BD002010BDA4060020D6
:1008800010B500F015F8012801D0022010BD07486E
:1008900002F040FD040006D104484FF4804102F00C
:1008A00037FA00B10124204610BD0000A406002044
:1008B00008B501208DF80000FFF7C4FF10B9002033
:1008C0008DF800009DF8000008BD000038B5002438
:1008D000009313460A460146034802F0F9FD00B1B1
:1008E0000124204638BD0000A406002038B50024AD
:1008F000009313460A460146034802F0D5FE00B1B4
:100900000124204638BD0000A406002010B50122B5
:100910000346007803E09C5C6040521CD2B28A42DD
:10092000F9D310BD06220B46114600F0ADB80721E1
:1009300000F077B82DE9F04115460C46064605F063
:1009400053FF00282ED094F8C80018B9304605F09F
:1009500076FE07464FF00100022F04D194F8C8102C
:1009600009B984F8C80094F8C81000291AD094F87E
:10097000C910C9B1B4F8CA100020FF2941D294F8B7
:10098000CC10B4F8CA20914225D2304605F057FE6B
:1009900094F8CC20211D505494F8CC0010F10100A3
:1009A00084F8CC00BDE8F08184F8C900012000F093
:1009B00003FA02202070304605F041FE6070304698
:1009C00005F03DFEA070304605F039FEE07060880D
:1009D000A4F8CA00E6E784F8C80084F8C90084F8DF
:1009E000CC00B4F8CA002A46C1B2204609F028FB60
:1009F000B4F8CA102046BDE8F0410122491DFFF7B6
:100A000098BC84F8C80084F8C900C9E713460A46B0
:100A1000042100F039B813B5012101AAFFF7F6FF50
:100A20001CBD1CB5044602208DF8000000228DF884
:100A3000011004218DF8022068468DF80320FFF78D
:100A400065FF052269468DF80400204605F0F9FD92
:100A50001CBD7CB50225044601208DF80050002302
:100A60008DF8011005218DF8020068468DF80330DD
:100A70008DF80420FFF74AFF062269468DF805002D
:100A8000204605F0DEFD7CBD2DE9F0411E461446F2
:100A90000F468046501D09F089F902220270477006
:100AA000210A84700546C170002003E02A18315CD9
:100AB000401C1171A042F9DB201DC1B22846FFF78E
:100AC00025FF2919641DA2B208712946404605F088
:100AD000B8FD2846BDE8F04108F040BFFEE770478A
:100AE000042000F099B9202000F096B97047002248
:100AF000AFF300800E4B70B505465C7A0120002CE8
:100B000014D15E7A03F108009C555E7A03EB8606E9
:100B100075605D7A2A54587A421C5A723A232F2201
:100B2000303008704B7020468A70CC7070BD000069
:100B3000948B00202DE9F05F28B190F83510022940
:100B400004D0802141650120BDE8F09F904C904B7E
:100B50000168183C18338E4ADFF83C92A1428D4C54
:100B6000DFF838E28E4FDFF83CB2DFF83CA28F4D61
:100B70008F4E31D091422FD099422DD0A1422BD00F
:100B8000494529D0714527D0B94225D0DFF810C298
:100B90000CF1180C61451FD0DFF808C2ACF1600CF5
:100BA000614519D0DFF8FCC1ACF1480C614513D0A8
:100BB000DFF8F0C1ACF1300C61450DD0DFF8E4C1D5
:100BC000ACF1180C614507D0594505D0514503D00B
:100BD000A94201D0B1422CD1DFF8B4C14FF00408D2
:100BE00080F83580ACF1180C61451DD091421BD0C6
:100BF000994219D0A14217D0494515D0714513D05B
:100C0000B94211D06648183081420DD0654860382D
:100C1000814209D063484838814205D06148303864
:100C2000814201D05F481838086820F00100086050
:100C3000ABE0D1F800C02CF00E08DFF854C1C1F8C9
:100C40000080ACF1180C0168614527D0914225D095
:100C5000994223D0A14221D049451FD071451DD0D2
:100C6000B9421BD0DFF838C10CF1180C614515D022
:100C7000DFF830C1ACF1600C61450FD0DFF824C162
:100C8000ACF1480C614509D0DFF818C1ACF1300C6B
:100C9000614503D0DFF80CC1ACF1180CD1F800C0ED
:100CA0002CF0010CC1F800C0DFF8E4804FF0010C1B
:100CB0000168A8F11808414546D0914244D09942B4
:100CC00042D0A14240D049453ED071453CD0B942C6
:100CD0003AD0334A1832914236D0324A603A914281
:100CE00032D0304A483A91422ED02E4A303A914280
:100CF0002AD02C4A183A914226D0594524D0514541
:100D000022D0A94220D0B1421ED02A4A91421BD003
:100D1000284A1432914217D0264A2832914213D0E1
:100D2000244A3C3291420FD0224A503291420BD099
:100D3000204A6432914207D01E4A7832914203D051
:100D40001C4A8C32914218D1016E0A6822F48072DA
:100D50000A6090F85C20816D02F01F020CFA02F22A
:100D60004A60D0E919124A60C16E31B10A6822F4B2
:100D700080720A60D0E91C124A600022016D80F87E
:100D8000342080F835C001B188470020DCE600003F
:100D900028000240580002407000024088000240D3
:100DA000A00002407004024088040240A0040240F7
:100DB000B80402400854025870B5044600F04EF9D9
:100DC0000546601C02D004480078044400F046F94F
:100DD000401BA042FAD370BDC8000020042810B503
:100DE00014D101030A4800F026F90A4803F0A4FED2
:100DF0000848183003F0A0FE0648303003F09CFE8F
:100E00000448BDE81040483003F096BE10BD000015
:100E100000040258080000204FF0B04110B5D1F88E
:100E20008820024203D0C1F88800FFF7D7FF10BD29
:100E30002DE9F84F714C00234FF0B04E4FF00109EF
:100E40004FF0030B4FF00F0AD0E000BF09FA03F890
:100E500012EA080274D04D68022D01D0122D0FD174
:100E6000DD085F0700EB850500950E692D6AFF0E12
:100E70000AFA07FCBE4025EA0C052E43009D2E62AF
:100E80005D000F7906680BFA05FC07F0030726EAF8
:100E90000C06AF40374307604E68012E05D0022E86
:100EA00003D0112E01D0122E0FD18668CF6826EA0A
:100EB0000C06AF403743876046680F7926EA08067C
:100EC000C7F300179F4037434760C6688F6826EA1C
:100ED0000C06AF403743C7604D68ED0030D5484D34
:100EE0002E6846F002062E602D6823F0030606F1F8
:100EF000B04605F0020500959D072F0FD6F808545F
:100F0000DFF800810AFA07FC404525EA0C0502D10A
:100F10004FF0000C41E0DFF8F0C0604502D14FF027
:100F2000010C3AE0DFF8E4C0604502D14FF0020C5A
:100F300033E0DFF8DCC0604503D14FF0030C2CE058
:100F400053E0DFF8D0C0604502D14FF0040C24E03C
:100F5000DFF8C4C0604502D14FF0050C1DE0DFF89A
:100F6000BCC0604502D14FF0060C16E0DFF8B0C0FF
:100F7000604502D14FF0070C0FE0DFF8A8C06045D4
:100F800002D14FF0080C08E0DFF89CC0604502D1A8
:100F90004FF0090C01E04FF00A0C0CFA07FC4CEA88
:100FA000050CC6F808C425684E6825EA0205F60354
:100FB00000D51543256065684E6825EA0205B6032D
:100FC00000D5154365604F687546DEF80060FF0286
:100FD00026EA020600D516432E604F686E68BF02EF
:100FE00026EA020600D516436E605B1C0A6832FAD8
:100FF00003F57FF42BAFBDE8F88F000080000058A8
:10100000F444025800000258000402580008025834
:10101000000C025800100258001402580018025820
:10102000001C0258002002580024025800690840A1
:1010300000D001207047426931EA020200D1090460
:10104000816170470AB1816170470904FBE70000C4
:1010500001480068000C70470010005C014880687F
:1010600070470000C800002030B590F84120202AC9
:1010700024D190F84020012A20D0012380F840306C
:10108000242280F84120202300240268156825F0DE
:10109000010515600268156825F480551560026821
:1010A00015680D43156001680A6842F001020A6084
:1010B00080F8413080F84040002030BD022030BD33
:1010C00030B590F84120202A22D190F84020012A02
:1010D0001ED0012380F84030242280F841202024B3
:1010E00000250268136823F0010313600268136887
:1010F00023F4706343EA0121116001680A6842F039
:1011000001020A6080F8414080F84050002030BD64
:10111000022030BD7047704730B403689A6919687F
:10112000D243D40509D4CC43240606D4456C4FF4ED
:10113000807445F001054564DC6153050AD4CB4356
:101140001B0607D4446C4FF4806344F008044464E5
:101150000468E36192050AD4C943090607D4426CC6
:101160004FF4007142F0020242640268D161416CA6
:1011700011F00B0F02D030BC03F0DCB930BC70476B
:101180000268436B91691268002B00D018477047C2
:101190007047000070B5040004D094F841000025A9
:1011A00010B106E0012070BD204684F8405000F0E8
:1011B000E1F8242084F841002068016821F0010151
:1011C0000160D4E9001020F0706008612068816837
:1011D00021F400418160E06821680128A06806D000
:1011E00040F404408860E068022803D006E040F440
:1011F0000040F7E721684FF4006048602021206834
:10120000114A4368134343602068C26822F40042D5
:10121000C26054F8106B0DCC104340EA0320F0601C
:1012200054F81C3CD4E900021043186054F81C0D1B
:10123000026842F001020260656484F8411025638F
:1012400084F84250002070BD00800002704700000A
:101250002DE9F84F044690F841001F469046DDF80E
:1012600028A08B4620287ED194F8400001287AD00F
:10127000012084F84000FFF7F1FE01220646192301
:101280000090D103204603F0CDFBE0BB00252121D7
:1012900084F84110102084F8420065646785618DF0
:1012A000FF2732484FF00079C4F82480FF294FF01F
:1012B0008078656303D927853A46009039E0618DCF
:1012C000218500903AE05946204603F095FB13E053
:1012D00003F0FCFBB8B9606A216800788862606A34
:1012E000401C6062608D401E6085208D401E80B273
:1012F0002085618D01B168B1608D3246514600286C
:101300002046E5D100E002E003F0B9FBD0B10120B6
:10131000BDE8F88F0022534680212046009603F056
:1013200081FB0028F3D1608DFF2804D927853A4638
:1013300000954346C7E7608D208500954B4694F89D
:101340002820C0E720682021094AC161206843683D
:101350001340436084F8411084F84250002084F820
:101360004050D5E7FFE70220D2E7000000200080D0
:1013700000E800FE10B586B0044614216846FEF76A
:10138000DFFF1B492068884230D11A48016841F0CC
:101390000201016000680423122200F0020005909F
:1013A00000204FF4407100916946CDE90120CDE95C
:1013B00003031148FFF73CFD0E480830016841F473
:1013C0000011016000680022114600F40010059031
:1013D0001F2000F085F81F2000F074F80022202064
:1013E000114600F07DF8202000F06CF806B010BD2A
:1013F00000540040E044025800040258704770470F
:10140000024881680278114481607047C80000205A
:10141000032010B500F084F801F064F90E490F4A7A
:101420000F4B0C68C4F30324145D04F01F04E04068
:101430001860096801F00F01515C01F01F01C840FC
:1014400008490860002000F00FF808B1012010BD25
:1014500000F02AF8002010BD18440258D0A400085B
:10146000D4000020D800002070B50D4D0446287827
:10147000A0B14FF47A71B1FBF0F00A490968B1FBF1
:10148000F0F002F00DFA48B9102C07D200222146E4
:10149000501E00F025F800206C6070BD012070BD6A
:1014A000C8000020D4000020054808B5016841F0BC
:1014B00002010160006800F00200009008BD000019
:1014C000F4440258002809DB410900F01F0289009A
:1014D000012001F1E0219040C1F8000170470000B7
:1014E0000E4BF0B41B680D46C3F30223C3F107068D
:1014F000042E00D90426191D072901D2002300E07B
:10150000DB1E012404FA06F19C40491E2940641E9A
:10151000994014402143F0BC06F058BB0CED00E0AC
:10152000064900F0070210B54FF6FF040868044BA7
:10153000204040EA02201843086010BD0CED00E096
:101540000000FA05134970B50A68D243520705D561
:10155000096801F00701814213D118E00A6822F0FE
:10156000070202430A60FFF779FD0A4D4FF47A76CD
:101570000446083D07E000BFFFF770FD001BB042C6
:1015800001D9012070BD2868C0438004F4D4002034
:1015900070BD00000C48025810B501F0A3F8064ACF
:1015A00006491268064BC2F303229A5C02F01F023E
:1015B000D040086010BD000018440258D40000203C
:1015C000D0A4000810B501F053F805490968054A90
:1015D000C1F30211515C01F01F01C84010BD0000B1
:1015E00020440258D0A40008494930B5484C0B1D8E
:1015F0000A680C3409681D68246802F0030305F0CA
:101600000102C1F30511C4F3CC04002914FB02F25A
:1016100000EE102AF8EE400A75D03F4A9FED3D1AC1
:10162000B7EE000A6BB1DFED3D1A012B01D0022BA2
:1016300064D002EE101A1168F8EE422A81EEA22A56
:1016400021E0334C283C23689B0612D5344B246898
:1016500001EE901A1168C4F3C104F8EE612AE34068
:1016600001EE903AC1F30801F8EE611A81EEA22A68
:101670000BE001EE901ADFED2B2A00BFF8EE611AA5
:10168000116882EEA12AC1F3080101EE901A1168D7
:10169000F8EE611A40EE811A71EE800A62EE200ABD
:1016A000C1F3462101EE101AB8EE411A31EE001ACC
:1016B000C0EE811ABCEEE11A80ED001A1168C1F388
:1016C000064101EE101AB8EE411A31EE001AC0EED2
:1016D000811ABCEEE11A80ED011A1168C1F30661AE
:1016E00001EE101AB8EE411A31EE000A80EE801AAF
:1016F000BCEEC10A80ED020A30BD04E001EE901A92
:10170000DFED092ABAE70021016041608160F3E75B
:101710002844025800000039304402580024744A1A
:101720000090D0030024744C20BCBE4B494930B516
:10173000484C0B1D0A68143409681D68246802F0BF
:101740000303C5F30012C1F30531C4F3CC0400292F
:1017500014FB02F200EE102AF8EE400A75D03F4A60
:101760009FED3D1AB7EE000A6BB1DFED3D1A012B7C
:1017700001D0022B64D002EE101A1168F8EE422A52
:1017800081EEA22A21E0334C283C23689B0612D527
:10179000344B246801EE901A1168C4F3C104F8EECA
:1017A000612AE34001EE903AC1F30801F8EE611AB4
:1017B00081EEA22A0BE001EE901ADFED2B2A00BF8A
:1017C000F8EE611A116882EEA12AC1F3080101EE58
:1017D000901A1168F8EE611A40EE811A71EE800AD3
:1017E00062EE200AC1F3462101EE101AB8EE411A4A
:1017F00031EE001AC0EE811ABCEEE11A80ED001A3B
:101800001168C1F3064101EE101AB8EE411A31EE2B
:10181000001AC0EE811ABCEEE11A80ED011A1168BF
:10182000C1F3066101EE101AB8EE411A31EE000A5A
:1018300080EE801ABCEEC10A80ED020A30BD04E0E1
:1018400001EE901ADFED092ABAE70021016041603C
:101850008160F3E7284402580000003938440258F8
:101860000024744A0090D0030024744C20BCBE4B6A
:10187000494930B5484C0B1D0A681C3409681D687D
:10188000246802F00303C5F30022C1F30551C4F339
:10189000CC04002914FB02F200EE102AF8EE400AF4
:1018A00075D03F4A9FED3D1AB7EE000A6BB1DFEDF0
:1018B0003D1A012B01D0022B64D002EE101A1168E0
:1018C000F8EE422A81EEA22A21E0334C283C23681C
:1018D0009B0612D5344B246801EE901A1168C4F3AC
:1018E000C104F8EE612AE34001EE903AC1F3080129
:1018F000F8EE611A81EEA22A0BE001EE901ADFEDFC
:101900002B2A00BFF8EE611A116882EEA12AC1F3FA
:10191000080101EE901A1168F8EE611A40EE811A82
:1019200071EE800A62EE200AC1F3462101EE101A20
:10193000B8EE411A31EE001AC0EE811ABCEEE11A7F
:1019400080ED001A1168C1F3064101EE101AB8EEDD
:10195000411A31EE001AC0EE811ABCEEE11A80ED98
:10196000011A1168C1F3066101EE101AB8EE411AAE
:1019700031EE000A80EE801ABCEEC10A80ED020A48
:1019800030BD04E001EE901ADFED092ABAE700212C
:10199000016041608160F3E728440258000000398B
:1019A000404402580024744A0090D0030024744C30
:1019B00020BCBE4B2DE9F0474FF480760146B04283
:1019C0006F48DFF8B8818AB06E4B4FF080576E4D8C
:1019D000A8F104044FEA20124FF0005C29D1D8F896
:1019E000001001F0070105291FD2DFE801F0030A0A
:1019F0000F20140006A8FFF7F7FD07980AB0BDE80E
:101A0000F0876846FFF792FE0098F7E703A8FFF714
:101A10002FFF0398F2E7216811F04051EED0B94250
:101A200075D11046EAE71846E8E70020E6E72846C1
:101A3000E4E7B1F5007F19D0544EB1F5806F26D0A0
:101A4000B1F5006F37D04FF4805949454FF4804AC3
:101A50004BD1D8F8001001F4E041B1F5005FD5D0CA
:101A60003DDC0029C6D04945DFD1CAE7D8F80010CF
:101A700001F4E0718029C9D004DC0029BAD04029E2
:101A8000D3D1BEE7C029D2D0B142CED1C3E73168AD
:101A900001F46001B1F5800FB8D005DC0029A9D0B0
:101AA000B1F5001FC1D1ACE7B1F5C00FBFD0B1F5A2
:101AB000000FBAD1AFE7316801F0E061B1F1007F0A
:101AC000A4D005DC002995D0B1F1807FADD198E795
:101AD000B1F1407FABD0B1F1806FA6D19BE7B1F5FA
:101AE000405FA4D05145A0D195E7B1F5002F4FF448
:101AF00080350DD0A9421DD1206810F48030B1D0BE
:101B0000A84292D16846FFF711FE029876E70EE0F0
:101B1000316811F44031A8D0A94203D0B1F5003F9B
:101B200083D178E703A8FFF7A3FE059866E7614530
:101B30009AD178E7514597D1316801F0E041B1F190
:101B4000405FE3D009DC81B1B94211D061458BD14E
:101B500003A8FFF78DFE049850E7B1F1804F3FF4E2
:101B600060AFB1F1A04F8BD15DE7FFF72BFD45E7EB
:101B70006846FFF7DBFD019840E70000504402583B
:101B80000090D00340787D010080BB00584402588B
:101B90002DE9FC5F044650F8241B002500902E46DA
:101BA0000801FE4FDFF8F8831DD5606E50B1B0F527
:101BB000801F0CD0B0F5001F0ED0B0F5401F1DD017
:101BC00001250FE0386840F40030386016E002214B
:101BD000201D03F08BFA03E00098022103F016FBAE
:101BE00005000BD02E462088C00523D5606D052842
:101BF0001ED2DFE800F00C11161B1B00626ED8F835
:101C0000001021F440111143C8F80010EBE73868C8
:101C100040F40030386009E00021201D03F066FA2E
:101C200003E00098002103F0F1FA05466DB100E0F1
:101C300001252E462088800528D5A06D80281ED03D
:101C40000CDC90B140280ED114E0626DD8F8001081
:101C500021F007011143C8F80010EBE7C02813D0AA
:101C6000B0F5807F10D001250FE0386840F40030D7
:101C7000386009E00021201D03F038FA03E00098E5
:101C8000002103F0C3FA054695B12E462088DFF8FF
:101C90001093400509F108092CD5D4F8A400B0F53B
:101CA000800F20D00DDCA0B1B0F5001F0FD115E0E2
:101CB000A26DD8F8001021F4E0711143C8F80010AB
:101CC000E4E7B0F5C00F13D0B0F5000F10D0012538
:101CD0000FE0386840F40030386009E00021201D32
:101CE00003F004FA03E00098002103F08FFA0546A0
:101CF00075B12E46208800052DD5D4F8A800B0F186
:101D0000007F21D00EDCA8B1B0F1807F10D116E0A9
:101D1000D4F8A420D9F8001021F460011143C9F8C7
:101D20000010E7E7B0F1407F13D0B0F1806F10D022
:101D300001250FE0386840F40030386009E00021E8
:101D4000201D03F0D3F903E00098002103F05EFAB0
:101D500005468DB12E462068DFF844B28001ABF114
:101D6000040B1FD5A06CD8B110280FD0202812D09A
:101D7000302815D0012514E0D4F8A820D9F8001097
:101D800021F0E0611143C9F80010E4E7386840F43D
:101D90000030386004E00221201D03F0A7F9054659
:101DA0006DB12E462088C0042BD5E06DB0F5005FE4
:101DB00020D00DDCA0B1B0F5805F0FD115E0A26C92
:101DC000DBF8001021F030011143CBF80010E9E7F7
:101DD000B0F5405F13D0B0F5804F10D001250FE073
:101DE000386840F40030386009E00021201D03F01D
:101DF0007DF903E00098002103F008FA054685B15B
:101E00002E462088800429D5206EB0F5403F23D08F
:101E100010DC08B3B0F5803F14D0B0F5003F0FD10F
:101E200015E0E26DD8F8001021F4E0411143C8F844
:101E30000010E6E7B0F5802F0ED0B0F5A02F0BD044
:101E400001250AE00121201D03F050F903E000986C
:101E5000012103F0DBF905468DB12E4620884004B0
:101E60002AD5D4F8AC00B0F1405F23D010DC08B321
:101E7000B0F1805F14D0B0F1005F0FD115E0226E99
:101E8000D8F8001021F4E0211143C8F80010E5E76C
:101E9000B0F1804F0ED0B0F1A04F0BD001250AE079
:101EA0000121201D03F022F903E00098012103F035
:101EB000ADF905466DB12E46208800041FD5E06EB1
:101EC000D8B1B0F1805F0ED0B0F1005F10D0012525
:101ED00014E0D4F8AC20D9F8001021F0E04111430F
:101EE000C9F80010E8E7386840F40030386004E0D2
:101EF0000121201D03F0FAF805466DB12E46206839
:101F0000C0011ED5606CD0B101280ED0022811D0BE
:101F1000032814D0012513E0E26ED8F8001021F058
:101F200040511143C8F80010E9E7386840F4003028
:101F3000386004E00221201D03F0D8F8054665B1A1
:101F40002E462068400257D51648016841F480713A
:101F50000160FFF783F882460EE0626CDBF8001048
:101F600021F003011143CBF80010EAE7FFF776F800
:101F7000A0EB0A0064283DD80A480068C005F5D5E2
:101F80007DBBDFF81CA0B4F8B0100AF1200ADAF823
:101F9000000001F4407100F4407005E02C44025848
:101FA0005044025800480258884211D0DAF8001014
:101FB000DAF8002021F4407142F48032CAF800209F
:101FC000DAF8002022F48032CAF80020CAF80010A3
:101FD000D4F8B000B0F5807F21D1FFF73FF8019031
:101FE00019E008E0FFF73AF80199411A41F2883008
:101FF000814210D903252E462078DFF80CA4C007B3
:102000003DD0A06F182838D026DC80B3082829D00E
:10201000102825D12CE0DAF800008007E2D5D4F8AA
:10202000B010C1F301200328F8480DD0016821F455
:102030007C510160B4F8B020DAF80010C2F30B0252
:102040001143CAF80010D7E7F14A036802EA1112F7
:1020500023F47C511143ECE720280ED028280CD023
:1020600001250BE00121201D03F040F804E004E00D
:102070000098012103F0CAF805465DB12E4620788C
:1020800080071ED5606F062819D2DFE800F0160C15
:1020900011161616A26FDAF8001021F0380111435C
:1020A000CAF80010EBE70121201D03F01FF803E040
:1020B0000098012103F0AAF8054675B100E001255A
:1020C0002E46207840071FD5D4F89000062819D254
:1020D000DFE800F0160C11161616626FDAF8001021
:1020E00021F007011143CAF80010EAE70121201D81
:1020F00002F0FCFF03E00098012103F087F8054699
:102100009DB100E001252E46207880062BD5D4F81D
:102110008C00B0F1405F24D011DC10B3B0F1805FCF
:1021200015D0B0F1005F10D116E0D4F89020D9F8A6
:10213000001021F007011143C9F80010E4E7B0F1E5
:10214000804F0ED0B0F1A04F0BD001250AE0002146
:10215000201D02F0CBFF03E00098022103F056F8A7
:1021600005468DB12E46207840062BD5D4F8980030
:10217000B0F5406F24D011DC10B3B0F5806F15D0EE
:10218000B0F5006F10D116E0D4F88C20DAF800100A
:1021900021F0E0411143CAF80010E4E7B0F5805F98
:1021A0000ED0B0F5A05F0BD001250AE00021201D64
:1021B00002F09CFF03E00098022103F027F8054697
:1021C0008DB12E46207800062BD5D4F89C00B0F5B2
:1021D000C04F24D011DC10B3B0F5005F15D0B0F5BE
:1021E000804F10D116E0D4F89820D9F8001021F4CF
:1021F000E0511143C9F80010E4E7B0F5004F0ED0EC
:10220000B0F5204F0BD001250AE00021201D02F07F
:102210006DFF03E00098022102F0F8FF05464DB182
:102220002E46207800071ED5D4F88000B0F5805FD8
:102230000AD00FE0D4F89C20D9F8001021F46041B6
:102240001143C9F80010ECE70098022102F0DEFF0C
:1022500000B10126D4F88020DAF8001021F44051B2
:102260001143CAF800102078C00613D5D4F89400A2
:10227000B0F5807F05D10098022102F0C7FF00B1C0
:102280000126D4F89420D9F8001021F440711143AC
:10229000C9F800102068000316D5D4F8A00038B1A2
:1022A000B0F5803F09D0B0F5003F0BD001250AE022
:1022B0000021201D02F01AFF03E00098022102F025
:1022C000A5FF054685B12E462068400322D5D4F8E7
:1022D0008400B0F5801F11D0B0F5001F13D0B0F509
:1022E000401F15D0012514E0D4F8A020D9F8001023
:1022F00021F440311143C9F80010E5E7386840F493
:102300000030386004E00098012102F07FFF0546AC
:1023100055B12E462068C0031CD5E06C70B1B0F5F5
:10232000803F10D0012514E0D4F88420DAF80010A2
:1023300021F440111143CAF80010EBE7386840F46B
:102340000030386004E00221201D02F0CFFE054677
:10235000CDB12E462068800005D50098022102F0FC
:1023600055FF00B10126206880031BD5E06FB8B18E
:10237000B0F5807F10D0B0F5007F11D0B0F5407F70
:102380000ED001250DE0E26CDBF8001021F4803165
:102390001143CBF80010DDE7386840F400303860B6
:1023A000C5B32E462068C00207D5226FD8F80010AA
:1023B00021F000411143C8F800102068800207D5C1
:1023C000A26ED8F8001021F080711143C8F80010F7
:1023D0002068400009D50D48016821F400410160E2
:1023E0000168D4F8B820114301602068002807DA9A
:1023F000226DDBF8001021F040511143CBF80010A2
:1024000096B10120BDE8FC9F544402581044025884
:10241000CFFFFF00FFE7E26FDAF8001021F4407110
:102420001143CAF80010BDE70020EBE72DE9F05F8B
:1024300004000F467ED0DFF82482D8F8000000F0B8
:102440000F00B8420CD2D8F8001021F00F01394328
:10245000C8F80010D8F8000000F00F00B84269D1A9
:1024600020787F4D40070AD52069296801F0700166
:10247000884204D9296821F070010143296020783D
:10248000774E361D00070AD56069316801F070018A
:10249000884204D9316821F070010143316020780D
:1024A000C0060AD5A069316801F4E061884204D908
:1024B000316821F4E061014331602078DFF8A0B198
:1024C00080060BF1080B0CD5E1695846DBF80020BB
:1024D00002F07002914204D9026822F070020A43AD
:1024E0000260207880070AD5E068296801F00F01B2
:1024F000884204D9296821F00F010143296020781E
:10250000C0073ED05649A2682868183920F4706088
:10251000104328606068022818D0032819D0096881
:10252000012819D0490700294ADADFF834A1AAF1B5
:10253000080A00E044E0DAF8002022F00702024333
:10254000CAF80020FEF78AFD814612E00968890377
:10255000E9E709688901E6E7C905E4E7FEF77EFDDA
:10256000A0EB090141F28830814202D90320BDE885
:10257000F09F6168DAF8000000F03800B0EBC10F9E
:10258000ECD1207880070AD5E068296801F00F01B6
:10259000884204D2296821F00F0101432960D8F84C
:1025A0000010404601F00F01B9420BD9016821F03B
:1025B0000F0139430160006800F00F00B84201D0FC
:1025C0000120D4E7207840070AD52069296801F066
:1025D0007001884204D2296821F07001014329600A
:1025E000207800070AD56069316801F070018842DF
:1025F00004D2316821F07001014331602078C006B7
:102600000AD5A069316801F4E061884204D23168DA
:1026100021F4E06101433160207880060CD5E16946
:102620005846DBF8002002F07002914204D20268A2
:1026300022F070020A43026000F054F82968094A47
:10264000C1F30321515C01F01F01C8400649086035
:1026500006480068BDE8F05FFEF706BF00200052A4
:1026600018440258D0A40008D4000020CC00002058
:1026700010B5FEF791FF064A06491268064B02F0B4
:102680000F029A5C02F01F02D040086010BD0000EB
:1026900018440258D8000020D0A4000810B5FFF755
:1026A000E7FF05490968054AC1F30211515C01F0D1
:1026B0001F01C84010BD00001C440258D0A40008EF
:1026C00010B5FFF7D5FF05490968054AC1F3022196
:1026D000515C01F01F01C84010BD00001C440258AD
:1026E000D0A40008454970B545480968434B103BE4
:1026F00011F0380208D00111082A03D0102A0BD09B
:10270000182A0BD0084670BD19688906FBD51968D0
:10271000C1F3C101C84070BD3A4870BD3749374D5B
:1027200018310C1D24350A68096826682D6802F0E6
:10273000030406F00102C1F30511C5F3CC0515FB36
:1027400002F200EE102AB8EE400AE9B32F4ADFED9C
:102750002E0AB7EE001A6CB1DFED2D1A012C01D054
:10276000022C43D002EE101A1068F8EE422A81EED5
:10277000A22A1EE01C68A40611D51B6801EE901A5F
:102780001168C3F3C103F8EE612AD84001EE900A44
:10279000C1F30800F8EE611A81EEA22A0BE001EE07
:1027A000901ADFED1C2A00BFF8EE611A106882EE65
:1027B000A12AC0F3080001EE900AF8EE611A40EE7B
:1027C000201A31EE810A00E015E022EE000A1068BE
:1027D000C0F34620401C00EE900AF8EE600A80EE3E
:1027E000201ABCEEC10A10EE100A70BD01EE901A5C
:1027F000DFED092AD8E7002070BD00001044025820
:102800000090D00340787D01000000393044025828
:102810000024744A0024744C20BCBE4B2DE9F05FA8
:1028200004007CD0FF4F2078FE4D1837DFF8F4937A
:10283000103DC00748D0D9F80000396800F03800D2
:10284000102815D0182803D101F0030002280FD05A
:102850006068B0F5803F12D010B1B0F5A02F18D04D
:10286000286820F480302860286820F4802009E05F
:102870002868800328D560680028D2D024E0286822
:1028800040F480302860606888B1FEF7E7FB0646B8
:1028900009E0286840F480202860F0E7FEF7DEFBBE
:1028A000801B64287ED828688003F7D50CE0FEF7EB
:1028B000D5FB064605E000BFFEF7D0FB801B642871
:1028C000F0D828688003F7D4207841F20308D54E69
:1028D0000C3E80074BD5D9F80000396810F038005D
:1028E0000ED0182801D188070AD0E06868B329689B
:1028F00021F0190101432960FEF7B0FB824619E07F
:102900002868400702D5E06800288AD0FEF7A0FBBF
:10291000404513D82069316821F47C3100E0BEE0E5
:1029200041EA0030306022E0FEF798FBA0EB0A009D
:102930000228B7D828684007F6D5E7E7207C316839
:1029400021F0FE4141EA0060ECE7286820F0010038
:102950002860FEF783FB824606E000BFFEF77EFBA1
:10296000A0EB0A0002289DD828684007F6D42078FA
:10297000C00659D5D9F80000DFF8A8B2396800F0D0
:102980003800ABF1040B082812D0182803D101F04D
:10299000030001280CD0E0690028286834D040F0FA
:1029A000800000E0DCE02860FEF758FB824623E070
:1029B0002868C00523D5E069802870D11FE000BFDA
:1029C00094F82000316821F0F84141EA80603060DD
:1029D0002AE000BF94F82010DBF8002022F07C529F
:1029E00042EA0161CBF800101EE000BFFEF736FBA3
:1029F000A0EB0A0002289CD82868C005F6D5FEF78F
:102A000027FB4045E6D8DBE720F080002860FEF792
:102A100025FB064605E000BFFEF720FB801B0228D1
:102A200087D82868C005F7D42078000729D57D48C5
:102A30006169643000298046016811D041F00101CC
:102A40000160FEF70BFB064605E000BFFEF706FB44
:102A5000801B022887D8D8F800008007F6D510E040
:102A600021F001010160FEF7F9FA064605E000BF1A
:102A7000FEF7F4FA801B022872D8D8F8000080070D
:102A8000F6D42078800623D5A0690028286810D0C5
:102A900040F480502860FEF7E1FA064605E02EE19A
:102AA000FEF7DCFA801B02285AD828688004F7D584
:102AB0000EE020F480502860FEF7D0FA064604E0CD
:102AC000FEF7CCFA801B02284AD828688004F7D485
:102AD000207840074FD5DFF85081D8F8001041F436
:102AE0008071C8F80010FEF7B9FA064605E000BF8D
:102AF000FEF7B4FA801B642832D8D8F80000C0056D
:102B0000F6D5484EA068603601280AD008B10528DD
:102B100013D0306820F001003060306820F00400ED
:102B200002E0306840F001003060A06841F2883A6D
:102B300090B1FEF793FA80460AE0306840F0040056
:102B40003060EEE7FEF78AFAA0EB0801514507D89E
:102B500030688007F6D50EE0FEF780FA804607E081
:102B600084E000BFFEF77AFAA0EB080151457DD85A
:102B700030688007F6D4606AF0B3DFF8A880D9F82F
:102B8000001008F12008C1F3C20103296FD0022808
:102B9000286820F08070286003D0FEF75FFA0446B2
:102BA00082E0FEF75BFA064605E000BFFEF756FA44
:102BB000801B022875D828688001F7D4E26A40F2A9
:102BC000F331386854F8283F884340EA021018432C
:102BD0003860217B4FF4FE0C22894FF0FE47208A9B
:102BE0004902267D521E401EA1F5007189B20CEAF1
:102BF0000040C2F3080200E083E01143761E014367
:102C0000084807EA06621143064A1C30C8F800105B
:102C10002432016821F00101016011684FF6F87655
:102C2000B14303E01044025800480258236A41EAC5
:102C3000C30111600168A26921F00C011143016018
:102C40000168E26921F0020111430160016841F469
:102C500080310160016841F400310160016841F494
:102C600080210160016841F0010101E019E01FE0ED
:102C70000160286840F080702860FEF7EFF9044694
:102C800005E000BFFEF7EAF9001B022809D8286812
:102C90008001F7D535E000BFFEF7E0F9001B022800
:102CA00002D90320BDE8F09F28688001F4D428E011
:102CB00039680128D8F8000021D0A26A01F0030386
:102CC00093421CD1E26AC1F305118A4217D1216BEC
:102CD000C0F30802491E8A4211D1616BC0F346223B
:102CE000491E91420BD1A16BC0F30642491E91428D
:102CF00005D1E16BC0F30660491E814201D001207D
:102D0000D0E70020CEE7704770477047704700005B
:102D10002DE9FE4304460F46C16B032084F83400BE
:102D200003295CD0B7F5004F59D0B7F5804F4FF06D
:102D300000054FF400664FF0806904D007B3A06B24
:102D400040F000603FE0009500210195206802F00E
:102D50004FFE80011CD46946204602F0D7FF70BBAD
:102D6000019840032DD5B4F848102068090402F0FA
:102D7000E3FA20BB206802211DE0A06B284322E07B
:102D8000009500210195206802F032FE800101D5F6
:102D90003546F2E76946204602F0B8FF78B9019857
:102DA000C0030ED5B4F848102068090402F0C4FA34
:102DB00028B92068002102F009FB0028DDD0054673
:102DC000DBE74D46D9E7A063A06B012558B1216828
:102DD0001348886384F834500120BDE8FE83A06B5B
:102DE00040F08050EFE7D4E90460D4E901123B469B
:102DF000042807D2E76DB7F5007F03D0B7F5807FD1
:102E00000BD00420CDF80880CDE90060206802F0E6
:102E1000F3FD84F834500020DFE70220F2E70000E1
:102E2000FF0FE01F70477047F0B5026E920F0A70F7
:102E3000026EC2F383624A70026EC2F301628A704C
:102E4000026E120CCA70B0F86020120A0A7190F873
:102E500060204A71426E120DCA80426EC2F3034274
:102E60000A72B0F86420C2F3C0324A72B0F864202B
:102E7000C2F380328A72B0F86420C2F34032CA7260
:102E8000B0F864200026C2F300320A734E730122A8
:102E9000C36B4FF4007463B1012B3AD003685049FF
:102EA0009963816B41F08051816380F83420012067
:102EB000F0BDB0F86430856E9B051B0D43EA957339
:102EC0000B61836EC3F3C2630B75836EC3F302633E
:102ED0004B75836EC3F342538B75836EC3F382438A
:102EE000CB75836EC3F3C2330B760D696D1CC5645D
:102EF0000B7E03F007039B1C9D40C5640B7A846521
:102F000003F00F0302FA03F35F0A7D43C0E91435AF
:102F10000EE090F86450836EAD06AD0A45EA1343A7
:102F20000B610B695B1C9B02C364C0E9144384659D
:102F3000B0F86830C3F380334B76B0F86830C3F331
:102F4000C6138B7690F8683003F07F03CB76C36EA0
:102F5000DB0F0B77C36EC3F341734B77C36EC3F3C1
:102F600082638B77C36EC3F38353CB77C36EC3F394
:102F7000405381F8203081F82160C36EC3F30043D1
:102F800081F82230B0F86C30C3F3C03381F82330BD
:102F9000B0F86C30C3F3803381F82430B0F86C3073
:102FA000C3F3403381F82530B0F86C30C3F30033FD
:102FB00081F82630B0F86C30C3F3812381F82730D4
:102FC000B0F86C30C3F3012381F8283090F86C001E
:102FD000C0F3460081F8290081F82A200020F0BDC6
:102FE000FF0FE01FC26B0A60026C4A60426C8A608D
:102FF000826CCA60C26C0A61026D4A61426D8A616C
:10300000806DC8610020704770B5B0F84810002589
:1030100004460068090402F0EBFA18B1A16B014301
:10302000A16304E02068002102F0E2FC0546C5F33C
:10303000432070BD30B591B00C460546694602F09C
:10304000E3FF58B12B68012221499963A96B014321
:10305000A96385F83420104611B030BD0098C0F344
:10306000811020700098C0F340106070009A4FF4F7
:103070007F40114600EA122242EA11616180019903
:1030800009BA6160029921720299090A6172029972
:10309000C1F30351A172DDE9022100EA1240C9B275
:1030A0000843A0810398C0F38520A0730398C0F360
:1030B0000120E0730398C0F303102074039800F01C
:1030C0000F0060740498000EA0740020C4E7000094
:1030D000FF0FE01F2DE9F84304460068256B416BA4
:1030E00009041BD5290719D5D4E90A50202813D380
:1030F0000026206802F096FC020A2870010C6A7013
:10310000030EA970761CEB70082E05F10405F0D3B0
:10311000E06A2038C4E90A50BDE8F883416B012712
:10312000DFF8EC810026C90551D539024CF23A127C
:10313000816329072068C16B21EA0201C16320680D
:10314000C16B21F08051C1632068C16821F040014A
:10315000C16018D515F0220F09D0206802F094FA4A
:1031600028B1A16B0143A1632046FFF75CFE2168F3
:10317000AA07C1F8388084F83470266323D120462A
:1031800000F091FAC8E72806C6D5206815F0220F8E
:1031900086622068C6622068066509D0206802F051
:1031A00073FA28B1A16B0143A1632046FFF73BFEF0
:1031B00015F0300F84F83470266302D0204600F0FA
:1031C00072FAA807A8D0204600F06CFAA4E7416B79
:1031D000490421D529071FD5D4E9085020289BD3BD
:1031E000002628780090697840EA01200090A978AC
:1031F00040EA01400090E9782D1D40EA016000900E
:103200002068694602F026FC761C082EE9D3606A25
:103210002038C4E908507FE7416B11F03A0F416B49
:1032200058D0890703D5A16B41F00201A163416B1E
:10323000090703D5A16B41F00801A163416B890621
:1032400003D5A16B41F02001A163416BC90603D5F1
:10325000A16B41F01001A163C0F838802068C16BF8
:1032600021F49D71C1632068C16821F04001C160F3
:103270002068C16A41F40051C1622068C16841F010
:103280008001C160206802F0FFF9A26B2B074FF4A8
:10329000006140EA0200A0632068C26822F0800258
:1032A000C2602068816303D584F8347026630DE022
:1032B00028068BD5A06B002888D02068C16B21F030
:1032C0008051C1632068066584F834702046FFF79A
:1032D000AAFD21E7C9009ED54FF080518163206887
:1032E000006D40074FEA856008D40028204602DAC6
:1032F000FFF70CFD10E7FFF707FD0DE7002820465C
:1033000002DAFFF702FD07E7FFF7FDFC04E7000024
:103310003A0F0018F0B5040085B024D094F83400BA
:10332000002538B9A069257708B90220A061204698
:1033300000F082F8032084F83400204600F03CF8C6
:1033400088B969462046FFF775FE60B99DF81010F0
:10335000E26B9DF81100012A08D0E5652046E1687E
:10336000FFF7D6FC58B1012005B0F0BD014302D0F3
:103370004FF4007001E04FF48070E065EEE7FDF778
:103380006DFE0127064604E0FDF768FE801B401C29
:103390000AD02046FFF738FE0428F5D1A56325633F
:1033A00084F834700020DFE74FF00040A06384F819
:1033B00034700320D8E70000FEB58269002104467E
:1033C0004FF0FA06022A0A46134604D125682F68F0
:1033D00047F010072F60CDE900360294206802F014
:1033E0000BFB18B9206802F017FB08B10120FEBDE5
:1033F0004FF48030FEF7DEFA4FF4FA71B0FBF1F0D3
:1034000020B10C49B1FBF0F0401C00E00220FDF7B8
:10341000D3FC204602F056FD4FF0010520B92046AE
:1034200002F0E6FC0028E2D084F83450A16B01439E
:10343000A163DBE710210100F0B587B00446142139
:103440006846FCF77DFF1E492068884235D11D483B
:10345000016841F480310160006800F4803005901B
:1034600018480C30016841F004010160016801F066
:1034700004010591016841F008010160006802241F
:103480000025694600F00800059003260C274FF43C
:10349000F8508DE8F1000C48FDF7CAFC042069469D
:1034A0008DE8F1000948FDF7C3FC002231201146E8
:1034B000FEF716F83120FEF705F807B0F0BD000062
:1034C00000700052D444025800080258000C025800
:1034D0002DE9F04F87B09A4617460D460446FDF792
:1034E000BDFD06903DB194F83400012807D0A06BD3
:1034F00040F000500DE0A06B40F0006009E0626D0C
:10350000002007EB0A01A063914204D9A06B40F0B0
:103510000070A063AFE00321804684F83410216876
:10352000C862E06B012800D07F0220684FF4007170
:1035300001F033FFDFF864914FF0010640B12268DB
:10354000C2F83890A16B0143A16384F8346092E023
:103550004FF0020B4FF0FF32CDE903B84FEA4A2398
:103560004FF0900CCDF8148069468DE80C1020685F
:1035700002F001F92068BAF1010FC16841F0400181
:10358000C16006D9C4F830B03946206801F09CFF0C
:1035900004E026633946206801F0B0FF50B123688B
:1035A000C3F83890A26B0243A26384F83460C4F875
:1035B000308060E0DDF804B01FE0406B000414D5FB
:1035C000BBF1200F11D30027206802F02BFA020A6A
:1035D0002870010C6A70030EA9707F1CEB70082F15
:1035E00005F10405F0D3ABF1200BFDF737FD06998B
:1035F000411A1098814222D208B32068416B11F41D
:10360000957FDAD0C16821F04001C1602068416B2C
:10361000C90509D5BAF1010F06D9E16B032903D019
:1036200002F032F80028BAD12068416B090715D59D
:10363000C0F83890A16B404641F0080117E02268BD
:10364000C2F83890A16B41F00041A16384F8346066
:10365000C4F83080032007B0BDE8F08F416B8907C4
:103660000BD5C0F83890A16B404641F00201A16330
:1036700084F8346020630120EDE7416B890606D5AC
:10368000C0F83890A16B404641F02001EFE70449B3
:10369000816384F834600020DDE70000FF0FE01F45
:1036A0003A0F0018704770472DE9F04F89B09B46DC
:1036B00016460D460446FDF7D1FC06903DB194F840
:1036C0003400012807D0A06B40F000500DE0A06B43
:1036D00040F0006009E0616D002706EB0B00A76376
:1036E000884204D9A06B40F00070A063B3E00320CF
:1036F00084F834002068C762E06B012800D07602AD
:1037000020684FF4007101F048FEDFF88CA14FF003
:10371000010840B12368C3F838A0A16B0143A1633D
:1037200084F8348097E04FEA4B224FF0FF3190232A
:103730000597CDE90237CDE900120497B946206814
:10374000694602F018F82068C168BBF1010F41F02A
:103750004002C26006D9202020632068314601F073
:10376000D6FF05E0102020632068314601F0E9FF14
:10377000060007D0236841464846C3F838A0A26B2C
:10378000324364E00198089027E0406B40041CD568
:103790000898202819D3002728780790697840EAEC
:1037A00001200790A97840EA01400790E9782D1D93
:1037B00040EA01600790206807A902F04BF97F1CDE
:1037C000082FE9D3089820380890FDF747FC0699A0
:1037D000411A1298814221D200B32068416B11F442
:1037E0008D7FD2D0C16821F04001C1602068416B5B
:1037F000C90521D5BBF1010F1ED9E16B03291BD0EF
:1038000001F042FFC0B12568C5F838A0A36B03439F
:10381000A36384F83480C4F830901CE02368C3F8B4
:1038200038A0A16B3143A16384F83480C4F8309090
:10383000032009B0BDE8F08F2068416B09070CD563
:103840004146C0F838A0A26B484642F00802A26385
:1038500084F8341020630120EBE7416B890709D518
:10386000C0F838A0A16B484641F00201A16384F87A
:103870003480EFE7416BC90607D54146C0F838A050
:10388000A26B484642F01002E1E7044A826384F8E2
:1038900034800020CDE70000FF0FE01F3A0F001832
:1038A000401EB0F1807F10B501D3012010BD4FF054
:1038B000E02460610F21601704F088F90020A06106
:1038C0000721216110BD704770477047F0B590F82F
:1038D0003C20012A38D01D4E012480F83C400222B1
:1038E00080F83D2002681A4D5368B242D2F808C0F1
:1038F00001D0AA4203D14F6823F470033B430F6801
:1039000023F070031F4357600268B24210D0B2F137
:10391000804F0DD00F4B9A420AD00F4B9A4207D0DE
:103920000E4B9A4204D0AA4202D00D4B9A4204D1C7
:1039300089682CF0800319439160002180F83D4094
:1039400080F83C100846F0BD0220F0BD00000140A8
:10395000000401400004004000080040000C00404A
:103960000018004010B5040003D094F83D0010B1D9
:1039700007E0012010BD002084F83C00204600F044
:103980000DF8022084F83D002068211D02F0CEFCD5
:10399000012084F83D00002010BD000008B500683B
:1039A000B0F1804F12D10A48016841F00101016075
:1039B00000680022114600F0010000901C20FDF775
:1039C0008FFDBDE808401C20FDF77CBD08BD000050
:1039D000E84402580168094ACB6843F00103CB6010
:1039E000016888681040062806D0B0F5803F03D0F3
:1039F000086840F0010008600020704707000100DF
:103A000070B5044690F83C00012814D0394B0125CC
:103A100084F83C50022084F83D00226890681840E9
:103A200020F47F4090600868702828D010DC10F0E7
:103A30000F0F03D04BE04FF0020070BD4FEA201291
:103A4000072A44D2DFE802F05151515149323A007D
:103A5000B0F1101F49D009DCB0F5805F37D0B0F568
:103A6000005F17D0B0F5801F31D13EE0A0F5801186
:103A700020393AD0102938D0202928D135E04A6899
:103A80002068D1E9021302F0B3FC2068816841F09C
:103A9000770109E04A682068D1E9021302F0A8FC26
:103AA0002068816841F48041816010E0CA684968FB
:103AB000206802F0B1FC2068502106E0CA6849681D
:103AC000206802F0BAFC2068602102F09BFC002014
:103AD00084F83D5084F83C0070BDCA68496820688D
:103AE00002F09AFC20684021EFE722680146104668
:103AF000EBE7000088FFCEFF704770B50446006812
:103B000000250169C943890715D4C168C9438907DC
:103B100011D4EA1E026101212177206880698007A3
:103B2000204602D0FFF7E8FF04E000F0A7F82046A7
:103B300000F0A5F8257720680169C943490717D423
:103B4000C168C943490713D402216FF0040202611E
:103B500021772068806910F4407F204602D0FFF76B
:103B6000CBFF04E000F08AF8204600F088F82577C3
:103B700020680169C943090716D4C168C943090708
:103B800012D404216FF00802026121772068C06915
:103B90008007204602D0FFF7AFFF04E000F06EF888
:103BA000204600F06CF8257720680169C943C906F2
:103BB00017D4C168C943C90613D408216FF0100295
:103BC000026121772068C06910F4407F204602D04E
:103BD000FFF792FF04E000F051F8204600F04FF8A4
:103BE000257720680169C943C90708D1C168C9435D
:103BF000C90704D1891E0161204600F041F8206800
:103C00000169C943090609D4C168C943090605D435
:103C10006FF0800101612046FFF756FE20680169C0
:103C2000C943C90509D4C168C943090605D46FF45D
:103C3000807101612046FFF746FE20680169C94393
:103C4000490609D4C168C943490605D46FF040014B
:103C50000161204600F024F820680169C943890603
:103C60000BD4C168C943890607D46FF020010161F4
:103C70002046BDE87040FFF728BE70BD7047704712
:103C800010B5064C01212046FDF7D5F92046BDE8C8
:103C9000104000224FF48041FDF7D4B900040258CF
:103CA000704730B590F87C10012918D0012280F8B7
:103CB0007C202421C0F880100022202450F8601BB2
:103CC0000B680D6823F0005325F001050D6042607C
:103CD00050F8601C0B6004620277104630BD022071
:103CE00030BD704770B5044690F87C0001281DD0A7
:103CF000012284F87C202420C4F880002068056814
:103D0000026822F0010202602068826822F060628C
:103D10000A438260204602F0BBFB2268202100207B
:103D20001560C4F8801084F87C0070BD022070BD5E
:103D300070B5044690F87C0001281DD0012284F85B
:103D40007C202420C4F8800020680568026822F0E6
:103D5000010202602068826822F060420A438260A9
:103D6000204602F095FB2268202100201560C4F84F
:103D7000801084F87C0070BD022070BD70477047D1
:103D8000704700002DE9F04103680446002540F625
:103D90000F06D86919689A68304209D186067DD520
:103DA00001F0200602F080573E4377D0E16E9EE09E
:103DB000614E624F16400F4037436FD0C70709D09E
:103DC000CF0507D501271F62D4F8883043F00103DF
:103DD000C4F8883083070AD5D30708D027680223A0
:103DE0003B62D4F8883043F00403C4F888304307BA
:103DF0000AD5D30708D0276804233B62D4F888305B
:103E000043F00203C4F8883003070CD501F0200307
:103E1000334308D0266808233362D4F8883043F04F
:103E20000803C4F8883003050BD54B0109D5266873
:103E30004FF400633362D4F8883043F02003C4F8B1
:103E40008830D4F88830002B34D0800609D501F0B2
:103E5000200002F08051084303D0E16E09B12046F2
:103E600088472168D4F888008968490602D410F090
:103E7000280F21D0204602F02DFC206881684906D9
:103E800015D5816821F040018160A06F78B12C497F
:103E90000165A06FFCF74EFE002800E012E009D09B
:103EA000A06F016D00E02046BDE8F04108472046C4
:103EB000FFF766FFBDE8F0812046FFF761FFC4F819
:103EC0008850F7E7C60209D5560207D54FF480108F
:103ED00018622046BDE8F041FFF751BF060609D53C
:103EE00001F0800602F40002164303D0216F00297E
:103EF000D9D1DFE742060DD54A060BD51A68202135
:103F0000204622F040021A60C4F88010256700F0B5
:103F10006EFACFE7020206D54A0004D52046BDE876
:103F2000F041FFF72BBFC001C4D50029C2DA2046FB
:103F3000BDE8F041FFF7D5BE0100001020010004EC
:103F4000C166000810B5040003D0D4F8800010B199
:103F500007E0012010BD002084F87C00204600F01E
:103F600027F82420C4F880002068016821F00101AE
:103F70000160204602F0D2FC0128EBD0A06A10B10B
:103F8000204602F0B7FA2068416821F49041416070
:103F90002068816821F02A0181602068016841F071
:103FA000010101602046BDE8104002F05ABB00004C
:103FB0002DE9F04F87B0064614216846FCF7C0F99A
:103FC000CB480024CD4B022532680838C8494FF051
:103FD0000808C84F9A42DFF820B34FF00309DFF812
:103FE00020A343D10A6842F400220A60096801F460
:103FF00000210591016841F002010160016801F0B2
:1040000002010591016841F001010160016801F0C0
:1040100001010591016841F0080101600068DE13AB
:104020000096694600F00800CDE901540394CDE9FB
:1040300004803846FCF7FCFE00966946CDE9015441
:10404000CDE903485846FCF7F3FECDF800906946E9
:10405000CDE90154CDE903485046FCF7E9FE0022C2
:1040600034201146FDF73CFA342024E0A54B9A4257
:1040700026D10A6842F480120A60096801F48011AE
:104080000591016841F00201016000680E2100F015
:10409000020005904FF440500090CDE90154CDE965
:1040A000034169463846FCF7C3FE0022352011461D
:1040B000FDF716FA3520FDF705FA07B0BDE8F08FD9
:1040C000914B07269A4221D10A6842F080420A6049
:1040D000096801F080410591016841F0200101600B
:1040E0000068694600F0200005904FF47070009061
:1040F000CDE901548548CDE90346FCF799FE00223D
:1041000052201146FDF7ECF95220D4E7804B9A4239
:1041100033D10A6842F000420A60096801F00041A8
:104120000591016841F008010160016801F0080192
:104130000591016841F0100101600068694600F0D6
:10414000100005904FF440400090CDE90154CDE9B6
:1041500003485046FCF76CFECDF800906946CDE967
:1041600001546C48CDE90348FCF762FE002253205D
:104170001146FDF7B5F953209DE75D4BDFF898C177
:104180000833624533D1196841F01001196019688C
:1041900001F010010591016841F001010160016821
:1041A00001F001010591016841F002010160006820
:1041B000694600F0020005904FF4E0500090CDE910
:1041C0000154CDE903465846FCF732FE40200090EA
:1041D000CDE90154CDE9034669463846FCF728FE8F
:1041E000002225201146FDF77BF9252063E74B4F80
:1041F000BA4220D10A6842F400320A60096801F428
:1042000000310591016841F00101016000686946D3
:1042100000F0010005900F200090CDE90154CDE998
:1042200003465846FCF704FE002226201146FDF7FF
:1042300057F926203FE73A4FBA4221D10A6842F4A3
:1042400080220A60096801F480210591016841F02B
:10425000080101600068694600F0080005904FF40D
:10426000D8500090CDE90154CDE903465046FCF703
:10427000DFFD002227201146FDF732F927201AE73B
:1042800028498A427FF419AF196841F0200119606A
:10429000196801F020010591016841F040010160B9
:1042A000016801F040010591016841F004010160DD
:1042B0000068694600F0040005904FF40450009037
:1042C000CDE901541848CDE90346FCF7B1FDC02003
:1042D0000090CDE9015415486946CDE90346FCF745
:1042E000A7FD002247201146FDF7FAF84720E2E635
:1042F000E84402580004025800000258004C0040F4
:10430000000C025800500040007800400014025891
:10431000007C0040001002580010014000440040A2
:1043200000480040001401400018025800080258DC
:104330002DE9F8430446D0F880001F4616460D4686
:10434000202852D1DDB1D6B194F87C0001284CD0A0
:10435000012284F87C2021214FF00008C4F88880D5
:10436000C4F880101834FCF779FE814654F8100C1C
:10437000A687E687183CB0F5805F03D004E00120F3
:10438000BDE8F883206910B12E46002510E0002614
:104390000EE08021204603F0C9F8B8B9C6B116F87E
:1043A000010B21688862B4F85600401EA4F856003C
:1043B000B4F856004B464FF0000200970028E8D1B1
:1043C0004FF04001204603F0B1F838B10320D7E7A1
:1043D00035F8020B2168C0F30800E3E72021C4F898
:1043E0008010002084F87C80CAE70220C8E770476C
:1043F000FEE700000148FCF78FBE000058060020D1
:104400000148FCF7BDBE00005806002010B5806BC7
:104410000021826B1165C26B116590F84110602913
:1044200002D0FCF7B5FE10BD202180F84110FCF74A
:1044300071FE10BDCA074FF028034FF0000210B5FF
:1044400006D090F84140422233EA040400D0F22220
:104450008C0707D590F8414042F04402A34301D0B5
:1044600042F0B0024B0701D542F0B80211238B4352
:1044700001D142F0900212238B4301D142F060023D
:10448000006801689143016010BD01688A69D243E8
:10449000920701D400228A6200688169C943C90772
:1044A00003D0816941F00101816170472DE9F0413C
:1044B000044690F841002821002508238143206804
:1044C00004D0C36184F84050BDE8F08187698669F3
:1044D0004FF0FE0E8168C268C7F30047D4F80CC0E5
:1044E0000EEA164602F0FE02BCF1020FC1F309010A
:1044F00018D14FF0060C06F006060CEAD11C6645F2
:104500000FD1A66C0A46761CA664A16C0229DBD1E9
:10451000A564C36184F8405039462046FCF7FBFD92
:10452000D2E7164620460421FFF784FF324684F87E
:104530004050F1E770B5344A0025044690F8410038
:10454000202684F84250E2626585626C282842EA9F
:104550000102626425D0292823D02A2821D00721EE
:104560002046FFF767FF94F84100602801D084F8E7
:10457000416025636563206824490268520402682B
:104580001AD522F480420260A06B002833D0016566
:1045900084F84050A06BFCF7CDFA00282BD0A06B1C
:1045A0001CE003212046FFF745FF194928206163DD
:1045B00084F841002563DEE7120413D5026822F473
:1045C00000420260E06B002815D0016584F840507D
:1045D000E06BFCF7AFFA00280DD0E06B016DBDE891
:1045E0007040084794F84100602805D0204684F8C0
:1045F0004050FCF7CDFD70BD84F84160204684F842
:104600004050FCF787FD70BD0000FFFF0D4400081F
:10461000D948000870B50446164AC843002541072A
:104620004FF02000E262256384F8410084F8425094
:10463000656311D42068616A406A0870606A401C32
:104640006062208D40B1618D401E2085491E6185CC
:10465000606C40F00400606407212046FFF7EAFE2A
:1046600021681020C861204684F84050FCF7EEFD18
:1046700070BD00000000FFFF2DE9F05F04460068F8
:1046800020260D460768C66107212046FFF7D2FEA7
:1046900020685049426842F4004242602068426803
:1046A0000A4042602046FFF7F0FEF8434A4FDFF829
:1046B00028C11837494B4A4A41044A49DFF8289132
:1046C000DFF828A1DFF828B1DFF828E104D4A06BD7
:1046D00005E0406860852FE000042DD4E06B58B3FE
:1046E000DFF8F4800068A8F118084045F1D0604573
:1046F000EFD0B842EDD09842EBD09042E9D088425A
:10470000E7D04845E5D05045E3D05845E1D0704565
:10471000DFD0384918318842DBD036493031884201
:10472000D7D0344948318842D3D0324960318842A9
:10473000CFD030497831CCE7E84340070FD4206828
:1047400025F00405616A406A0870606A401C606276
:10475000208D20B1618D401E2085491E6185608DB0
:1047600018B1606C40F0040060640027276384F88F
:104770004270606C676368B1616C2046FFF7DAFED7
:1047800094F84100282814D129462046BDE8F05F5E
:10479000FFF740BFE06A184DA8420CD0204600F059
:1047A0002DF8E56284F84160204684F84070FCF7FB
:1047B0004DFDBDE8F09F94F8410084F84160222847
:1047C000204684F8407002D0FCF719FEF1E7FCF7B0
:1047D00015FEEEE700E800FE280002405800024007
:1047E0007000024088000240A0000240B800024071
:1047F00010040240280402400000FFFF70B5044688
:104800000025282084F8425094F84110292911D01D
:1048100094F841102A290CD1222184F84100216307
:1048200002212046FFF706FE204684F84050FCF7A0
:10483000E5FD70BD212184F841002163012120465E
:10484000FFF7F8FD204684F84050FCF7D8FD70BD16
:104850002DE9F0410446006890460E468069C04349
:10486000C00635D40025202720688069C043800613
:1048700016D5701CF8D0FCF7F1FBA0EB0800B04295
:1048800001D8002EF0D1606C84F8405040F0200038
:10489000606484F8417084F842500120BDE8F081E2
:1048A00021681020C8612068C7612046FFF7EDFD30
:1048B0002068084942680A404260606C40F0040089
:1048C000606484F8417084F8425084F84050E4E712
:1048D0000020E3E700E800FE2DE9F041044690F8EF
:1048E00040008846E56A012826D06FEA08070120C3
:1048F00084F84000B9066FEA020605D4B00603D476
:1049000041462046FFF7B8FE3A49F8064FF080725C
:1049100031D4F0062FD4638D102083B12168C86193
:10492000606C40F0040060640DB195425ED1616C32
:104930002046FFF7FFFD59E00220BDE8F08194F822
:104940004120282A02D1B5F1007F04D094F84120FB
:10495000292A05D00CE041462046FFF75BFE45E0E2
:104960008D4205D02168C8612046FFF78EFD3AE0F0
:104970002168C8613AE0780715D4700713D4608DB8
:1049800060B12068626A406A1070606A401C6062B0
:10499000208D401E2085608D401E6085608D28BB67
:1049A0008D4220D122E0380706D4300704D4414696
:1049B0002046FFF77BFD19E0B80717D4B00715D4E0
:1049C000608D68B1606A216800788862606A401C06
:1049D0006062608D401E6085208D401E208505E050
:1049E000954200D015B92046FFF708FF002084F853
:1049F0004000A2E70000FFFF70B50068C1F30901A5
:104A0000074E41EA0241049C4FF480654268194315
:104A100005EA54553543AA4321430A43426070BD19
:104A2000FF63FF032DE9F0411D4617460E4604467D
:104A3000DDF8188008E0681C06D0FCF70FFBA0EB3F
:104A40000800A8420BD855B12068806936EA0000FA
:104A500013D00020B842EED00020BDE8F081626C97
:104A6000002084F84000202142F02002626484F893
:104A7000411084F842000120EFE70120EAE770B519
:104A800016460D4604460DE0324629462046FFF7FD
:104A9000DFFE08B1012070BDFCF7E0FA801BA842E0
:104AA00007D835B120688069C0438006ECD4002067
:104AB00070BD626C002084F84000202142F020028A
:104AC000626484F8411084F84200E3E770B516464A
:104AD0000D4604460FE0324629462046FFF7B8FE51
:104AE00008B1012070BD681C05D0FCF7B7FA801B27
:104AF000A84207D835B120688069C0438007EAD44E
:104B0000002070BD626C002084F84000202142F03B
:104B10002002626484F8411084F84200E1E74268B0
:104B200000F108011046FBF7FDBE4068FBF7FFBE31
:104B300040684021FBF76FBF40689021FBF76BBFD7
:104B4000F02240680C21FBF784BF002240680C2152
:104B5000FBF77FBF40687021FBF75DBF40686421B1
:104B6000FBF759BF40686021FBF755BF40686221E1
:104B7000FBF751BF1CB506A41923246801948DF8D6
:104B8000052001AA00930223FCF762FB1CBD000074
:104B9000010000000449054810B5FBF7A8FF0249D1
:104BA000491E087010BD0000B2000020BCA400081F
:104BB0002DE9F04F87B014216846FBF7C1FB504840
:104BC000016841F020010160016801F020010591B8
:104BD000016841F001010160016801F001010591E6
:104BE000016841F002010160016801F002010591D4
:104BF000016841F008010160016801F008010591B8
:104C0000016841F040010160016801F04001059137
:104C1000016841F004010160016801F0040105919F
:104C2000016841F01001016000680022DFF8D4A0A3
:104C3000202100F0100005905046FCF703FA44F2E2
:104C40008108314800224146FCF7FCF9DFF8BCB08E
:104C50004FF48079002249465846FCF7F3F92C4E70
:104C60000420002469460294CDE900065046FCF772
:104C7000DFF818206946CDE9000450460294FCF79D
:104C8000D7F82027009701256946CDE90154504601
:104C90000394FCF7CDF8CDF800806946CDE90154C6
:104CA00019480394FCF7C4F8CDF800906946CDE9A3
:104CB000015458460394FCF7BBF868026946CDE9F5
:104CC000000458460294FCF7B3F8009769460E4872
:104CD000CDE90164FCF7ACF8002208201146FCF78E
:104CE000FFFB0820FCF7EEFB002217201146FCF723
:104CF000F7FB1720FCF7E6FB07B0BDE8F08F0000DC
:104D0000E0440258001402580004025800000258FF
:104D1000000011110E48002110B50C4C01230D4A62
:104D20000460C0E90121C0E9033141618161C161D1
:104D30000162FCF72FFA06480021FCF795F9BDE85F
:104D4000104003480021FCF7BBB9000000540040AC
:104D500058060020BC7D701010B588B011480024A2
:104D60004FF6FF124FF0804100949311019402948A
:104D7000039404940594069480E81600C0E9033473
:104D80008461FEF7EFFD4FF48050009005486946BE
:104D9000FEF736FE034804A904940694FEF796FD38
:104DA00008B010BD240700201049002210B50E4C99
:104DB0000C230C60C1E90102CA600846C1E9042362
:104DC0008A61CA610A624A628A62FFF7BBF80748D1
:104DD0000021FEF7ADFF05480021FEF783FFBDE887
:104DE00010400248FEF75DBF004C00406407002001
:104DF0001049002210B50E4C0C230C60C1E90102D1
:104E0000CA600846C1E904238A61CA610A624A622B
:104E10008A62FFF797F807480021FEF789FF0548E7
:104E20000021FEF75FFFBDE810400248FEF739BFE2
:104E300000500040F00700201049002210B50E4C31
:104E40000C230C60C1E90102CA600846C1E90423D1
:104E50008A61CA610A624A628A62FFF773F8074888
:104E60000021FEF765FF05480021FEF73BFFBDE886
:104E700010400248FEF715BF007800407C08002073
:104E80001049002210B50E4C0C230C60C1E9010240
:104E9000CA600846C1E904238A61CA610A624A629B
:104EA0008A62FFF74FF807480021FEF741FF0548E7
:104EB0000021FEF717FFBDE810400248FEF7F1BEE3
:104EC000007C0040080900201049002210B50E4C5B
:104ED0000C230C60C1E90102CA600846C1E9042341
:104EE0008A61CA610A624A628A62FFF72BF8074840
:104EF0000021FEF71DFF05480021FEF7F3FEBDE887
:104F000010400248FEF7CDBE00100140500C0020BA
:104F10001049002210B50E4C0C230C60C1E90102AF
:104F2000CA600846C1E904238A61CA610A624A620A
:104F30008A62FFF707F807480021FEF7F9FE0548E7
:104F40000021FEF7CFFEBDE810400248FEF7A9BEE3
:104F500000440040DC0C00201049002210B50E4C2B
:104F60000C230C60C1E90102CA600846C1E90423B0
:104F70008A61CA610A624A628A62FEF7E3FF0748F1
:104F80000021FEF7D5FE05480021FEF7ABFEBDE887
:104F900010400248FEF785BE00480040680D002022
:104FA0001049002210B50E4C0C230C60C1E901021F
:104FB000CA600846C1E904238A61CA610A624A627A
:104FC0008A62FEF7BFFF07480021FEF7B1FE0548E1
:104FD0000021FEF787FEBDE810400248FEF761BEE3
:104FE0000014014094090020FEE7704770470168F3
:104FF0008A6842F001028A600068016841F020017D
:1050000001607047D0F8D027D0F8D4074FF4FA6188
:10501000101A00F5FA6080B2B0FBF1F201FB120049
:10502000704770B40368DD691C68AE0607D5A60634
:1050300005D5D869586A70BCC0B205F0A3B9290675
:105040000BD5210609D5D2F8D017D2F8D447A14202
:1050500005D1186820F08000186070BC7047D2F845
:10506000D417D2F8D4374FF4FA645B1CB3FBF4F5D1
:10507000515C04FB1533C2F8D4370068C269816201
:10508000EBE710B5D0F8D017D0F8D427914201D172
:10509000FF2010BDD0F8D417D0F8D4274FF4FA630E
:1050A000521CB2FBF3F4415C03FB1422C0F8D4277A
:1050B000084610BD30B5002A16DBD1F8D0374FF4C2
:1050C000FA645B1CB3FBF4F504FB1533D1F8D44749
:1050D0009C42FBD0D1F8D0470A55C1F8D0370068C0
:1050E000016841F08001016030BD00002DE9F0470A
:1050F000454D044689464FF0000A2868C0438007A2
:105100000AD0414E283E306820F080603060FBF7C6
:10511000A5FF0746B04608E00120BDE8F08700BFC4
:10512000FBF79CFFC01B022867D8D8F800000001DD
:10513000F6D4206829684FF4FE0721F47C313E0242
:1051400041EA00302860207AA389B4F804C0400204
:105150002D4D2D495B1E227CACF1010C1035091D33
:10516000A0F5007080B2521ECCF3080C07EA03438E
:1051700040EA0C00184306EA0262104328600868FF
:10518000626920F0C000104308600A68A06922F03C
:10519000200202430A60281D0A6822F010020A60F9
:1051A00002684FF6F873E4699A4342EAC402026067
:1051B0000868B9F1000F40F010020A6011D00868C9
:1051C000B9F1010F11D040F400100860D8F80000C8
:1051D000444640F08060C8F80000FBF73FFF0546FA
:1051E0000DE0086840F40020EFE740F48010ECE7A1
:1051F000FBF734FF401B022801D903208DE720680C
:105200000001F5D5504688E7284402582DE9F047BB
:10521000454D044689464FF0000A2868C043800780
:105220000AD0414E283E306820F080503060FBF7B5
:1052300015FF0746B04608E00120BDE8F08700BF33
:10524000FBF70CFFC01B022867D8D8F800008000CD
:10525000F6D4208829684FF4FE0721F07C713E02C5
:1052600041EA00502860207AA389B4F804C04002C3
:105270002D4D2D495B1E227CACF1010C1835091D0A
:10528000A0F5007080B2521ECCF3080C07EA03436D
:1052900040EA0C00184306EA0262104328600868DE
:1052A000626920F44060104308600A68A06922F433
:1052B000007202430A60281D0A6822F480720A60A4
:1052C00002684FF6F873E4699A4342EAC402026046
:1052D0000868B9F1000F40F480720A6011D00868C4
:1052E000B9F1010F11D040F080700860D8F80000CB
:1052F000444640F08050C8F80000FBF7AFFE05467A
:105300000DE0086840F48000EFE740F40000ECE7AF
:10531000FBF7A4FE401B022801D903208DE720687B
:105320008000F5D5504688E7284402580148FDF72B
:10533000D1BE0000A406002030B585B00446372059
:105340004FF480720DF1080CCDE90010002369467E
:10535000150120468CE82C0000F068FB372141F253
:105360008832204600F01AFA05B030BD30B585B05D
:10537000044629204FF480720DF1080CCDE900108D
:1053800000236946150120468CE82C0000F04EFBF6
:10539000204600F0BFFA05B030BD30B504461020FD
:1053A00085B00DF1080C02010502CDE900100023C3
:1053B00069468CE82C00204600F038FB102141F2B1
:1053C0008832204600F0EAF905B030BD30B585B02E
:1053D000044606204FF480720DF1080CCDE9001050
:1053E00000236946150120468CE82C0000F01EFBC6
:1053F000062141F28832204600F0D0F905B030BDD8
:1054000030B585B00546002469464FF480500094BD
:1054100001940294CDE90340284600F007FB0B4AB3
:105420004FF4FA5041F288311268B2FBF0F0484371
:10543000401E03D24FF0004005B030BD696B090635
:10544000F6D503492046A963F6E70000D400002002
:10545000C500200030B50821044685B04FF4D57052
:1054600000254A014B0204938DE827006946204637
:1054700000F0DCFA134A4FF4FA5041F28831126816
:10548000B2FBF0F04843401E03D24FF0004005B09D
:1054900030BD616B11F0450FF5D08904F3D4606B1A
:1054A000400701D5042003E0606BC00702D0012053
:1054B000A063ECE7606B400601D54020A06328465E
:1054C000E5E70000D400002030B585B00446122086
:1054D0004FF480720DF1080CCDE9001000236946ED
:1054E000150120468CE82C0000F0A0FA122141F2B0
:1054F0008832204600F052F905B030BD30B585B095
:10550000044611204FF480720DF1080CCDE9001013
:1055100000236946150120468CE82C0000F086FA2D
:10552000112141F28832204600F038F905B030BD33
:1055300030B585B004464FF480710DF1040C07209E
:10554000009200230D018CE82B006946204600F0F4
:105550006DFA072141F28832204600F01FF905B0AC
:1055600030BD10B586B00446002102204FF44072D1
:10557000C3020493CDE90010CDE90221694620461B
:1055800000F054FA204600F09BF906B010BD30B58B
:1055900085B0044609200DF1080C0023CDE9001068
:1055A0004FF4407269464FF4805520468CE82C0039
:1055B00000F03CFA204600F083F905B030BD10B58C
:1055C00086B00446002133204FF48072CDE90221D9
:1055D000CDE90010130169462046049300F026FA35
:1055E000332141F28832204600F0D8F806B010BDD1
:1055F00030B585B004460D204FF480720DF1080CD3
:10560000CDE9001000236946150120468CE82C00E6
:1056100000F00CFA0D2141F28832204600F0BEF86D
:1056200005B030BD30B585B00C46002105460320DD
:105630004FF48072CDE90221CDE9001013016946D3
:105640002846049300F0F2F903212246284600F090
:1056500085F905B030BD10B586B0044600210D2097
:105660004FF48072CDE90221CDE9001013016946A3
:105670002046049300F0DAF90D2141F288322046E9
:1056800000F08CF806B010BD10B586B004464FF49B
:10569000807200200C2113018DE80700CDE903037F
:1056A000E06840F08000E060E06820F04000E060EA
:1056B0006946204600F0BAF9074A0C21204600F05E
:1056C0006DF8E168B0F1007F21F08001E16000D168
:1056D000002006B010BD000000E1F50510B586B051
:1056E000044600210B204FF48072CDE90221CDE960
:1056F0000010130169462046049300F097F90B212E
:1057000041F28832204600F049F806B010BD30B5AD
:1057100085B0044619204FF480720DF1080CCDE9D4
:10572000001000236946150120468CE82C0000F08B
:105730007DF9192141F28832204600F02FF805B09A
:1057400030BD30B585B0044618204FF480720DF19D
:10575000080CCDE9001000236946150120468CE8AD
:105760002C0000F063F9182141F28832204600F045
:1057700015F805B030BD70B50A6842624A688262A9
:10578000C46AD1E90225D1E9043624F0FF012A4395
:1057900033431A431143C162002070BD30B5464DFA
:1057A0004FF4FA53434C2D68B5FBF3F353435B1EA0
:1057B00002D24FF0004030BD426B2242F7D092043B
:1057C000F5D4426B520703D504218163084630BDEE
:1057D000426BD20702D00121816306E0354A803254
:1057E00082630269D2B28A4201D0012030BD002119
:1057F00000F0FEF83149084201D1002030BD0028F8
:1058000002DA4FF0007030BD410001D5402030BDBC
:10581000810001D5802030BDC10002D54FF48070D9
:1058200030BD010102D54FF4007030BD410102D5F9
:105830004FF4806030BDC10102D54FF4006030BD2F
:10584000010202D54FF4805030BD410202D54FF421
:10585000005030BD810202D54FF4804030BDC102FE
:1058600002D54FF4004030BD410302D54FF4003063
:1058700030BD810302D54FF4802030BDC10302D575
:105880004FF4002030BD010402D54FF4801030BD2C
:10589000410402D54FF4001030BD810402D54FF40D
:1058A000800030BD000702D54FF4000030BD4FF43A
:1058B000803030BD45002000D400002008E0FFFD0E
:1058C000124B4FF4FA5141F288321B68B3FBF1F1ED
:1058D0005143491E02D24FF000407047426B12F014
:1058E000450FF6D09204F4D4416B490703D5042147
:1058F000816308467047416BC90703D0012181636A
:10590000084670470249816300207047D400002098
:10591000C50020000F4B4FF4FA5141F288321B684A
:10592000B3FBF1F15143491E02D24FF000407047E2
:10593000426B12F0450FF6D09204F4D4416B490744
:1059400003D5042181630846704703498163002021
:1059500070470000D4000020C500200030B5204D65
:105960004FF4FA5341F288342D68B5FBF3F36343E7
:105970005B1E02D24FF0004030BD446B14F0450F67
:10598000F6D0A404F4D4436B5B0703D504218163F0
:10599000084630BD436BDB0702D00121816303E081
:1059A0000369DBB28B4201D0012030BD0D49816318
:1059B000002100F01DF810F4604F04D0410406D51A
:1059C0004FF4005030BD000C1080002030BD0004AA
:1059D00002D54FF4805030BD4FF4803030BD000010
:1059E000D4000020C5002000006800F003007047CC
:1059F000084440697047000030B511434268DDE952
:105A000003542B43034D194321432A400A43426068
:105A1000002030BD002CC0FF016841F0030101608F
:105A200000207047D0F880007047000070B5084D26
:105A30000A688260C368D1E90126D1E903412B409D
:105A400032430C4322431343C360002070BD000067
:105A5000C0E0FEFF0968C0F8801000207047000019
:105A600010B5002488B022460BA1684602F082F8E7
:105A70000C480222694600F0BFF850B10AA0214646
:105A800001F05AFF10A0214601F056FF08B0204651
:105A900010BD641CA4B2E6E74D45545F25642E5446
:105AA00058540000200A002046696C6520224D45AC
:105AB000545F25642E5458542220626573746161CA
:105AC00074204E4945540A004E6965757720666911
:105AD0006C65206E756D6D65723A202564200A0034
